{
	"test/MyToken.sol": {
		"MyToken": {
			"abi": [
				{
					"inputs": [
						{
							"internalType": "string",
							"name": "name",
							"type": "string"
						},
						{
							"internalType": "string",
							"name": "symbol",
							"type": "string"
						},
						{
							"internalType": "uint8",
							"name": "_decimals",
							"type": "uint8"
						}
					],
					"stateMutability": "nonpayable",
					"type": "constructor"
				},
				{
					"anonymous": false,
					"inputs": [
						{
							"indexed": true,
							"internalType": "address",
							"name": "owner",
							"type": "address"
						},
						{
							"indexed": true,
							"internalType": "address",
							"name": "spender",
							"type": "address"
						},
						{
							"indexed": false,
							"internalType": "uint256",
							"name": "amount",
							"type": "uint256"
						}
					],
					"name": "Approval",
					"type": "event"
				},
				{
					"anonymous": false,
					"inputs": [
						{
							"indexed": true,
							"internalType": "address",
							"name": "from",
							"type": "address"
						},
						{
							"indexed": false,
							"internalType": "uint256",
							"name": "amount",
							"type": "uint256"
						}
					],
					"name": "Deposit",
					"type": "event"
				},
				{
					"anonymous": false,
					"inputs": [
						{
							"indexed": true,
							"internalType": "address",
							"name": "from",
							"type": "address"
						},
						{
							"indexed": true,
							"internalType": "address",
							"name": "to",
							"type": "address"
						},
						{
							"indexed": false,
							"internalType": "uint256",
							"name": "amount",
							"type": "uint256"
						}
					],
					"name": "Transfer",
					"type": "event"
				},
				{
					"anonymous": false,
					"inputs": [
						{
							"indexed": true,
							"internalType": "address",
							"name": "to",
							"type": "address"
						},
						{
							"indexed": false,
							"internalType": "uint256",
							"name": "amount",
							"type": "uint256"
						}
					],
					"name": "Withdrawal",
					"type": "event"
				},
				{
					"inputs": [],
					"name": "DOMAIN_SEPARATOR",
					"outputs": [
						{
							"internalType": "bytes32",
							"name": "",
							"type": "bytes32"
						}
					],
					"stateMutability": "view",
					"type": "function"
				},
				{
					"inputs": [
						{
							"internalType": "address",
							"name": "",
							"type": "address"
						},
						{
							"internalType": "address",
							"name": "",
							"type": "address"
						}
					],
					"name": "allowance",
					"outputs": [
						{
							"internalType": "uint256",
							"name": "",
							"type": "uint256"
						}
					],
					"stateMutability": "view",
					"type": "function"
				},
				{
					"inputs": [
						{
							"internalType": "address",
							"name": "spender",
							"type": "address"
						},
						{
							"internalType": "uint256",
							"name": "amount",
							"type": "uint256"
						}
					],
					"name": "approve",
					"outputs": [
						{
							"internalType": "bool",
							"name": "",
							"type": "bool"
						}
					],
					"stateMutability": "nonpayable",
					"type": "function"
				},
				{
					"inputs": [
						{
							"internalType": "address",
							"name": "",
							"type": "address"
						}
					],
					"name": "balanceOf",
					"outputs": [
						{
							"internalType": "uint256",
							"name": "",
							"type": "uint256"
						}
					],
					"stateMutability": "view",
					"type": "function"
				},
				{
					"inputs": [],
					"name": "decimals",
					"outputs": [
						{
							"internalType": "uint8",
							"name": "",
							"type": "uint8"
						}
					],
					"stateMutability": "view",
					"type": "function"
				},
				{
					"inputs": [],
					"name": "deposit",
					"outputs": [],
					"stateMutability": "payable",
					"type": "function"
				},
				{
					"inputs": [
						{
							"internalType": "address",
							"name": "recipent",
							"type": "address"
						},
						{
							"internalType": "uint256",
							"name": "amount",
							"type": "uint256"
						}
					],
					"name": "mint",
					"outputs": [],
					"stateMutability": "nonpayable",
					"type": "function"
				},
				{
					"inputs": [],
					"name": "name",
					"outputs": [
						{
							"internalType": "string",
							"name": "",
							"type": "string"
						}
					],
					"stateMutability": "view",
					"type": "function"
				},
				{
					"inputs": [
						{
							"internalType": "address",
							"name": "",
							"type": "address"
						}
					],
					"name": "nonces",
					"outputs": [
						{
							"internalType": "uint256",
							"name": "",
							"type": "uint256"
						}
					],
					"stateMutability": "view",
					"type": "function"
				},
				{
					"inputs": [],
					"name": "owner",
					"outputs": [
						{
							"internalType": "address",
							"name": "",
							"type": "address"
						}
					],
					"stateMutability": "view",
					"type": "function"
				},
				{
					"inputs": [
						{
							"internalType": "address",
							"name": "owner",
							"type": "address"
						},
						{
							"internalType": "address",
							"name": "spender",
							"type": "address"
						},
						{
							"internalType": "uint256",
							"name": "value",
							"type": "uint256"
						},
						{
							"internalType": "uint256",
							"name": "deadline",
							"type": "uint256"
						},
						{
							"internalType": "uint8",
							"name": "v",
							"type": "uint8"
						},
						{
							"internalType": "bytes32",
							"name": "r",
							"type": "bytes32"
						},
						{
							"internalType": "bytes32",
							"name": "s",
							"type": "bytes32"
						}
					],
					"name": "permit",
					"outputs": [],
					"stateMutability": "nonpayable",
					"type": "function"
				},
				{
					"inputs": [],
					"name": "symbol",
					"outputs": [
						{
							"internalType": "string",
							"name": "",
							"type": "string"
						}
					],
					"stateMutability": "view",
					"type": "function"
				},
				{
					"inputs": [],
					"name": "totalSupply",
					"outputs": [
						{
							"internalType": "uint256",
							"name": "",
							"type": "uint256"
						}
					],
					"stateMutability": "view",
					"type": "function"
				},
				{
					"inputs": [
						{
							"internalType": "address",
							"name": "to",
							"type": "address"
						},
						{
							"internalType": "uint256",
							"name": "amount",
							"type": "uint256"
						}
					],
					"name": "transfer",
					"outputs": [
						{
							"internalType": "bool",
							"name": "",
							"type": "bool"
						}
					],
					"stateMutability": "nonpayable",
					"type": "function"
				},
				{
					"inputs": [
						{
							"internalType": "address",
							"name": "from",
							"type": "address"
						},
						{
							"internalType": "address",
							"name": "to",
							"type": "address"
						},
						{
							"internalType": "uint256",
							"name": "amount",
							"type": "uint256"
						}
					],
					"name": "transferFrom",
					"outputs": [
						{
							"internalType": "bool",
							"name": "",
							"type": "bool"
						}
					],
					"stateMutability": "nonpayable",
					"type": "function"
				},
				{
					"inputs": [
						{
							"internalType": "uint256",
							"name": "amount",
							"type": "uint256"
						}
					],
					"name": "withdraw",
					"outputs": [],
					"stateMutability": "nonpayable",
					"type": "function"
				},
				{
					"stateMutability": "payable",
					"type": "receive"
				}
			],
			"devdoc": {
				"kind": "dev",
				"methods": {},
				"version": 1
			},
			"evm": {
				"assembly": "    /* \"test/MyToken.sol\":104:1027  contract MyToken is ERC20 {... */\n  0xe0\n  dup1\n  0x40\n  mstore\n  jumpi(tag_15, callvalue)\n  bytecodeSize\n  dup1\n  codesize\n  sub\n  dup1\n  swap2\n  tag_6\n  dup3\n  dup6\n  tag_1\n  jump\t// in\ntag_6:\n  dup4\n  codecopy\n  dup2\n  add\n  swap1\n  0x60\n  dup2\n  dup4\n  sub\n  slt\n  tag_15\n  jumpi\n  dup1\n  mload\n  sub(shl(0x40, 0x01), 0x01)\n  dup2\n  gt\n  tag_15\n  jumpi\n  dup3\n  tag_11\n  swap2\n  dup4\n  add\n  tag_2\n  jump\t// in\ntag_11:\n  0x20\n  dup3\n  add\n  mload\n  swap1\n  swap3\n  swap1\n  sub(shl(0x40, 0x01), 0x01)\n  dup2\n  gt\n  tag_15\n  jumpi\n  0x40\n  swap2\n  tag_14\n  swap2\n  dup5\n  add\n  tag_2\n  jump\t// in\ntag_14:\n  swap2\n  add\n  mload\n  0xff\n  dup2\n  and\n  dup2\n  sub\n  tag_15\n  jumpi\n  dup3\n  mload\n  sub(shl(0x40, 0x01), 0x01)\n  dup2\n  gt\n  tag_27\n  jumpi\n  tag_19\n  sload(0x00)\n  tag_3\n  jump\t// in\ntag_19:\n  0x1f\n  dup2\n  gt\n  tag_20\n  jumpi\ntag_21:\n  pop\n  0x20\n  0x1f\n  dup3\n  gt\n  0x01\n  eq\n  tag_22\n  jumpi\n  dup2\n  swap3\n  swap4\n  swap5\n  0x00\n  swap3\n  tag_24\n  jumpi\ntag_25:\n  pop\n  pop\n  dup2\n  0x01\n  shl\n  swap2\n  not(0x00)\n  swap1\n  0x03\n  shl\n  shr\n  not\n  and\n  or\n  0x00\n  sstore\ntag_26:\n  dup2\n  mload\n  sub(shl(0x40, 0x01), 0x01)\n  dup2\n  gt\n  tag_27\n  jumpi\n  tag_29\n    /* \"base/ERC20.sol\":2086:2102  symbol = _symbol */\n  0x01\n    /* \"test/MyToken.sol\":104:1027  contract MyToken is ERC20 {... */\n  sload\n  tag_3\n  jump\t// in\ntag_29:\n  0x1f\n  dup2\n  gt\n  tag_30\n  jumpi\ntag_31:\n  pop\n  0x20\n  swap3\n  0x1f\n  dup3\n  gt\n  0x01\n  eq\n  tag_32\n  jumpi\n  swap3\n  dup2\n  swap3\n  swap4\n  0x00\n  swap3\n  tag_34\n  jumpi\ntag_35:\n  pop\n  pop\n  dup2\n    /* \"base/ERC20.sol\":2086:2102  symbol = _symbol */\n  0x01\n    /* \"test/MyToken.sol\":104:1027  contract MyToken is ERC20 {... */\n  shl\n  swap2\n  not(0x00)\n  swap1\n  0x03\n  shl\n  shr\n  not\n  and\n  or\n    /* \"base/ERC20.sol\":2086:2102  symbol = _symbol */\n  0x01\n    /* \"test/MyToken.sol\":104:1027  contract MyToken is ERC20 {... */\n  sstore\ntag_36:\n    /* \"base/ERC20.sol\":2112:2132  decimals = _decimals */\n  0x80\n  mstore\n    /* \"base/ERC20.sol\":2162:2175  block.chainid */\n  chainid\n    /* \"base/ERC20.sol\":2143:2175  INITIAL_CHAIN_ID = block.chainid */\n  0xa0\n  mstore\n    /* \"test/MyToken.sol\":104:1027  contract MyToken is ERC20 {... */\n  mload(0x40)\n  0x00\n  swap1\n  sload(0x00)\n  swap2\n  dup2\n  tag_37\n  dup5\n  tag_3\n  jump\t// in\ntag_37:\n  swap2\n  dup3\n  dup3\n  mstore\n  0x20\n  dup3\n  add\n  swap5\n    /* \"base/ERC20.sol\":2086:2102  symbol = _symbol */\n  0x01\n    /* \"test/MyToken.sol\":104:1027  contract MyToken is ERC20 {... */\n  dup2\n  and\n    /* \"base/ERC20.sol\":2086:2102  symbol = _symbol */\n  swap1\n  dup2\n    /* \"test/MyToken.sol\":104:1027  contract MyToken is ERC20 {... */\n  0x00\n    /* \"base/ERC20.sol\":2086:2102  symbol = _symbol */\n  eq\n  tag_38\n  jumpi\n    /* \"test/MyToken.sol\":104:1027  contract MyToken is ERC20 {... */\n  pop\n  0x01\n  eq\n  tag_40\n  jumpi\ntag_41:\n  tag_42\n  swap3\n  pop\n  sub\n  dup3\n  tag_1\n  jump\t// in\ntag_42:\n  mload\n    /* \"base/ERC20.sol\":5663:5685  keccak256(bytes(name)) */\n  swap1\n  keccak256\n    /* \"test/MyToken.sol\":104:1027  contract MyToken is ERC20 {... */\n  mload(0x40)\n  0x20\n    /* \"base/ERC20.sol\":5522:5793  abi.encode(... */\n  dup2\n  add\n    /* \"test/MyToken.sol\":104:1027  contract MyToken is ERC20 {... */\n  swap2\n    /* \"base/ERC20.sol\":5550:5645  keccak256(\"EIP712Domain(string name,string version,uint256 chainId,address verifyingContract)\") */\n  0x8b73c3c69bb8fe3d512ecc4cf759cc79239f7b179b0ffacaa9a75d522b39400f\n    /* \"test/MyToken.sol\":104:1027  contract MyToken is ERC20 {... */\n  dup4\n  mstore\n  0x40\n  dup3\n  add\n  mstore\n    /* \"base/ERC20.sol\":5703:5717  keccak256(\"1\") */\n  0xc89efdaa54c0f20c7adf612882df0950f5a951637e0307cdcb4c672f298b8bc6\n    /* \"test/MyToken.sol\":104:1027  contract MyToken is ERC20 {... */\n  0x60\n  dup3\n  add\n  mstore\n    /* \"base/ERC20.sol\":2162:2175  block.chainid */\n  chainid\n    /* \"base/ERC20.sol\":2112:2132  decimals = _decimals */\n  0x80\n    /* \"test/MyToken.sol\":104:1027  contract MyToken is ERC20 {... */\n  dup3\n  add\n  mstore\n    /* \"base/ERC20.sol\":5774:5778  this */\n  address\n    /* \"base/ERC20.sol\":2143:2175  INITIAL_CHAIN_ID = block.chainid */\n  0xa0\n    /* \"test/MyToken.sol\":104:1027  contract MyToken is ERC20 {... */\n  dup3\n  add\n  mstore\n    /* \"base/ERC20.sol\":2143:2175  INITIAL_CHAIN_ID = block.chainid */\n  0xa0\n    /* \"base/ERC20.sol\":5522:5793  abi.encode(... */\n  dup2\n  mstore\n  tag_43\n  0xc0\n  dup3\n  tag_1\n  jump\t// in\ntag_43:\n    /* \"test/MyToken.sol\":104:1027  contract MyToken is ERC20 {... */\n  mload\n    /* \"base/ERC20.sol\":5499:5803  keccak256(... */\n  swap1\n  keccak256\n    /* \"base/ERC20.sol\":5522:5793  abi.encode(... */\n  0xc0\n    /* \"base/ERC20.sol\":2185:2236  INITIAL_DOMAIN_SEPARATOR = computeDomainSeparator() */\n  mstore\n    /* \"test/MyToken.sol\":275:293  owner = msg.sender */\n  0x06\n    /* \"test/MyToken.sol\":104:1027  contract MyToken is ERC20 {... */\n  dup1\n  sload\n  not(sub(shl(0xa0, 0x01), 0x01))\n  and\n    /* \"test/MyToken.sol\":283:293  msg.sender */\n  caller\n    /* \"test/MyToken.sol\":104:1027  contract MyToken is ERC20 {... */\n  or\n  swap1\n  sstore\n    /* \"base/ERC20.sol\":2112:2132  decimals = _decimals */\n  0x80\n    /* \"test/MyToken.sol\":104:1027  contract MyToken is ERC20 {... */\n  mload\n  0xff\n  and\n  0x4d\n  dup2\n  gt\n  tag_48\n  jumpi\n  0x0a\n  exp\n  dup1\n    /* \"test/MyToken.sol\":321:330  100000000 */\n  0x05f5e100\n    /* \"test/MyToken.sol\":104:1027  contract MyToken is ERC20 {... */\n  mul\n  swap1\n    /* \"test/MyToken.sol\":321:330  100000000 */\n  0x05f5e100\n    /* \"test/MyToken.sol\":104:1027  contract MyToken is ERC20 {... */\n  dup3\n  div\n  sub\n  tag_48\n  jumpi\n    /* \"base/ERC20.sol\":6074:6095  totalSupply += amount */\n  0x02\n    /* \"test/MyToken.sol\":104:1027  contract MyToken is ERC20 {... */\n  sload\n  dup2\n  dup2\n  add\n  dup1\n  swap2\n  gt\n  tag_48\n  jumpi\n    /* \"base/ERC20.sol\":6074:6095  totalSupply += amount */\n  0x02\n    /* \"test/MyToken.sol\":104:1027  contract MyToken is ERC20 {... */\n  sstore\n    /* \"test/MyToken.sol\":283:293  msg.sender */\n  caller\n  0x00\n    /* \"test/MyToken.sol\":104:1027  contract MyToken is ERC20 {... */\n  mstore\n    /* \"base/ERC20.sol\":6241:6250  balanceOf */\n  0x03\n    /* \"test/MyToken.sol\":104:1027  contract MyToken is ERC20 {... */\n  0x20\n  mstore\n  keccak256(0x00, 0x40)\n  dup2\n  dup2\n  sload\n  add\n  swap1\n  sstore\n  mload(0x40)\n  swap1\n  dup2\n  mstore\n  0x00\n    /* \"base/ERC20.sol\":6290:6322  Transfer(address(0), to, amount) */\n  0xddf252ad1be2c89b69c2b068fc378daa952ba7f163c4a11628f55a4df523b3ef\n    /* \"test/MyToken.sol\":104:1027  contract MyToken is ERC20 {... */\n  0x20\n    /* \"test/MyToken.sol\":283:293  msg.sender */\n  caller\n    /* \"base/ERC20.sol\":6290:6322  Transfer(address(0), to, amount) */\n  swap4\n  log3\n    /* \"test/MyToken.sol\":104:1027  contract MyToken is ERC20 {... */\n  mload(0x40)\n  dataSize(sub_0)\n  swap1\n  dup2\n  dataOffset(sub_0)\n  dup3\n  codecopy\n    /* \"base/ERC20.sol\":2112:2132  decimals = _decimals */\n  0x80\n    /* \"test/MyToken.sol\":104:1027  contract MyToken is ERC20 {... */\n  mload\n  dup2\n  assignImmutable(\"0x6585423cb6456b1d4957f6454d2f004f0c4f58d53a00082412d5c2ef4b1b31fd\")\n    /* \"base/ERC20.sol\":2143:2175  INITIAL_CHAIN_ID = block.chainid */\n  0xa0\n    /* \"test/MyToken.sol\":104:1027  contract MyToken is ERC20 {... */\n  mload\n  dup2\n  assignImmutable(\"0xd67d834462ca31eaef1f30157e31659f60355143b7441e6fc7d9eae1fa79f3f8\")\n    /* \"base/ERC20.sol\":5522:5793  abi.encode(... */\n  0xc0\n    /* \"test/MyToken.sol\":104:1027  contract MyToken is ERC20 {... */\n  mload\n  dup2\n  assignImmutable(\"0x880de8116b3dfac28e9ff528a9fef1d1e0a51449c1addce011ffec1f302992b6\")\n  return\ntag_48:\n  mstore(0x00, shl(0xe0, 0x4e487b71))\n  mstore(0x04, 0x11)\n  revert(0x00, 0x24)\ntag_40:\n  pop\n  0x00\n  dup1\n  dup1\n  mstore\n  swap1\n  swap2\n  mload(0x00)\n  codecopy(0x00, data_510e4e770828ddbf7f7b00ab00a9f6adaf81c0dc9cc85f1f8249c256942d61d9, 0x20)\n  mload(0x00)\n  swap1\n  0x00\n  mstore\ntag_50:\n  dup2\n  dup4\n  lt\n  tag_51\n  jumpi\n  pop\n  pop\n  swap1\n  0x20\n  tag_42\n  swap3\n  dup3\n  add\n  add\n  jump(tag_41)\ntag_51:\n  0x20\n  swap2\n  swap4\n  pop\n  dup1\n    /* \"base/ERC20.sol\":2086:2102  symbol = _symbol */\n  0x01\n    /* \"test/MyToken.sol\":104:1027  contract MyToken is ERC20 {... */\n  swap2\n  sload\n  dup4\n  dup6\n  dup9\n  add\n  add\n  mstore\n  add\n  swap2\n  add\n  swap1\n  swap2\n  dup4\n  swap3\n  jump(tag_50)\ntag_38:\n  not(0xff)\n  and\n  dup7\n  mstore\n  pop\n  tag_42\n  swap3\n  iszero\n  iszero\n  0x05\n  shl\n  dup3\n  add\n  0x20\n  add\n  swap1\n  pop\n  jump(tag_41)\ntag_34:\n  add\n  mload\n  swap1\n  pop\n  0x00\n  dup1\n  jump(tag_35)\ntag_32:\n  not(0x1f)\n  dup3\n  and\n  swap4\n    /* \"base/ERC20.sol\":2086:2102  symbol = _symbol */\n  0x01\n  0x00\n    /* \"test/MyToken.sol\":104:1027  contract MyToken is ERC20 {... */\n  mstore\n  dup1\n  0x00\n  keccak256\n  swap2\n  0x00\ntag_53:\n  dup7\n  dup2\n  lt\n  tag_54\n  jumpi\n  pop\n  dup4\n    /* \"base/ERC20.sol\":2086:2102  symbol = _symbol */\n  0x01\n    /* \"test/MyToken.sol\":104:1027  contract MyToken is ERC20 {... */\n  swap6\n  swap7\n  lt\n  tag_56\n  jumpi\ntag_57:\n  pop\n  pop\n  pop\n  dup2\n  shl\n  add\n    /* \"base/ERC20.sol\":2086:2102  symbol = _symbol */\n  0x01\n    /* \"test/MyToken.sol\":104:1027  contract MyToken is ERC20 {... */\n  sstore\n  jump(tag_36)\ntag_56:\n  add\n  mload\n  not(0x00)\n  0xf8\n  dup5\n  0x03\n  shl\n  and\n  shr\n  not\n  and\n  swap1\n  sstore\n  0x00\n  dup1\n  dup1\n  jump(tag_57)\ntag_54:\n  swap2\n  swap3\n  0x20\n    /* \"base/ERC20.sol\":2086:2102  symbol = _symbol */\n  0x01\n    /* \"test/MyToken.sol\":104:1027  contract MyToken is ERC20 {... */\n  dup2\n  swap3\n  dup7\n  dup6\n  add\n  mload\n  dup2\n  sstore\n  add\n  swap5\n  add\n  swap3\n  add\n  jump(tag_53)\ntag_30:\n    /* \"base/ERC20.sol\":2086:2102  symbol = _symbol */\n  0x01\n  0x00\n    /* \"test/MyToken.sol\":104:1027  contract MyToken is ERC20 {... */\n  mstore\n  0xb10e2d527612073b26eecdfd717e6a320cf44b4afac2b0732d9fcbe2b7fa0cf6\n  0x1f\n  dup4\n  add\n  0x05\n  shr\n  dup2\n  add\n  swap2\n  0x20\n  dup5\n  lt\n  tag_58\n  jumpi\ntag_59:\n  0x1f\n  add\n  0x05\n  shr\n  add\n  swap1\ntag_60:\n  dup2\n  dup2\n  lt\n  tag_61\n  jumpi\n  pop\n  jump(tag_31)\ntag_61:\n  0x00\n  dup2\n  sstore\n    /* \"base/ERC20.sol\":2086:2102  symbol = _symbol */\n  0x01\n    /* \"test/MyToken.sol\":104:1027  contract MyToken is ERC20 {... */\n  add\n  jump(tag_60)\ntag_58:\n  swap1\n  swap2\n  pop\n  dup2\n  swap1\n  jump(tag_59)\ntag_27:\n  mstore(0x00, shl(0xe0, 0x4e487b71))\n  mstore(0x04, 0x41)\n  revert(0x00, 0x24)\ntag_24:\n  add\n  mload\n  swap1\n  pop\n  0x00\n  dup1\n  jump(tag_25)\ntag_22:\n  not(0x1f)\n  dup3\n  and\n  swap1\n  0x00\n  dup1\n  mstore\n  dup1\n  0x00\n  keccak256\n  swap2\n  0x00\ntag_63:\n  dup2\n  dup2\n  lt\n  tag_64\n  jumpi\n  pop\n  swap6\n  dup4\n  0x01\n  swap6\n  swap7\n  swap8\n  lt\n  tag_66\n  jumpi\ntag_67:\n  pop\n  pop\n  pop\n  dup2\n  shl\n  add\n  0x00\n  sstore\n  jump(tag_26)\ntag_66:\n  add\n  mload\n  not(0x00)\n  0xf8\n  dup5\n  0x03\n  shl\n  and\n  shr\n  not\n  and\n  swap1\n  sstore\n  0x00\n  dup1\n  dup1\n  jump(tag_67)\ntag_64:\n  swap2\n  swap3\n  0x20\n  0x01\n  dup2\n  swap3\n  dup7\n  dup12\n  add\n  mload\n  dup2\n  sstore\n  add\n  swap5\n  add\n  swap3\n  add\n  jump(tag_63)\ntag_20:\n  0x00\n  dup1\n  mstore\n  mload(0x00)\n  codecopy(0x00, data_510e4e770828ddbf7f7b00ab00a9f6adaf81c0dc9cc85f1f8249c256942d61d9, 0x20)\n  mload(0x00)\n  swap1\n  0x00\n  mstore\n  0x1f\n  dup4\n  add\n  0x05\n  shr\n  dup2\n  add\n  swap2\n  0x20\n  dup5\n  lt\n  tag_68\n  jumpi\ntag_69:\n  0x1f\n  add\n  0x05\n  shr\n  add\n  swap1\ntag_70:\n  dup2\n  dup2\n  lt\n  tag_71\n  jumpi\n  pop\n  jump(tag_21)\ntag_71:\n  0x00\n  dup2\n  sstore\n  0x01\n  add\n  jump(tag_70)\ntag_68:\n  swap1\n  swap2\n  pop\n  dup2\n  swap1\n  jump(tag_69)\ntag_15:\n  0x00\n  dup1\n  revert\ntag_1:\n  0x1f\n  swap1\n  swap2\n  add\n  not(0x1f)\n  and\n  dup2\n  add\n  swap1\n  sub(shl(0x40, 0x01), 0x01)\n  dup3\n  gt\n  swap1\n  dup3\n  lt\n  or\n  tag_27\n  jumpi\n  0x40\n  mstore\n  jump\t// out\ntag_2:\n  dup2\n  0x1f\n  dup3\n  add\n  slt\n  iszero\n  tag_15\n  jumpi\n  dup1\n  mload\n  swap1\n  sub(shl(0x40, 0x01), 0x01)\n  dup3\n  gt\n  tag_27\n  jumpi\n  mload(0x40)\n  swap3\n  tag_79\n  0x1f\n  dup5\n  add\n  not(0x1f)\n  and\n  0x20\n  add\n  dup6\n  tag_1\n  jump\t// in\ntag_79:\n  dup3\n  dup5\n  mstore\n  0x20\n  dup4\n  dup4\n  add\n  add\n  gt\n  tag_15\n  jumpi\n  dup2\n  0x00\n  swap3\n  0x20\n  dup1\n  swap4\n  add\n  dup4\n  dup7\n  add\n  mcopy\n  dup4\n  add\n  add\n  mstore\n  swap1\n  jump\t// out\ntag_3:\n  swap1\n  0x01\n  dup3\n  dup2\n  shr\n  swap3\n  and\n  dup1\n  iszero\n  tag_82\n  jumpi\ntag_83:\n  0x20\n  dup4\n  lt\n  eq\n  tag_84\n  jumpi\n  jump\t// out\ntag_84:\n  mstore(0x00, shl(0xe0, 0x4e487b71))\n  mstore(0x04, 0x22)\n  revert(0x00, 0x24)\ntag_82:\n  swap2\n  0x7f\n  and\n  swap2\n  jump(tag_83)\nstop\ndata_510e4e770828ddbf7f7b00ab00a9f6adaf81c0dc9cc85f1f8249c256942d61d9 290decd9548b62a8d60345a988386fc84ba6bc95484008f6362f93160ef3e563\n\nsub_0: assembly {\n        /* \"test/MyToken.sol\":104:1027  contract MyToken is ERC20 {... */\n      mstore(0x40, 0x80)\n      jumpi(tag_10, iszero(lt(calldatasize, 0x04)))\n    tag_11:\n      jumpi(tag_12, iszero(calldatasize))\n      0x00\n      dup1\n      revert\n    tag_12:\n        /* \"test/MyToken.sol\":964:1025  receive() external payable virtual {... */\n      tag_14\n      tag_8\n      jump\t// in\n    tag_14:\n        /* \"test/MyToken.sol\":104:1027  contract MyToken is ERC20 {... */\n      stop\n    tag_10:\n      shr(0xe0, calldataload(0x00))\n      dup1\n      0x06fdde03\n      eq\n      tag_15\n      jumpi\n      dup1\n      0x095ea7b3\n      eq\n      tag_17\n      jumpi\n      dup1\n      0x18160ddd\n      eq\n      tag_19\n      jumpi\n      dup1\n      0x23b872dd\n      eq\n      tag_21\n      jumpi\n      dup1\n      0x2e1a7d4d\n      eq\n      tag_23\n      jumpi\n      dup1\n      0x313ce567\n      eq\n      tag_25\n      jumpi\n      dup1\n      0x3644e515\n      eq\n      tag_27\n      jumpi\n      dup1\n      0x40c10f19\n      eq\n      tag_29\n      jumpi\n      dup1\n      0x70a08231\n      eq\n      tag_31\n      jumpi\n      dup1\n      0x7ecebe00\n      eq\n      tag_33\n      jumpi\n      dup1\n      0x8da5cb5b\n      eq\n      tag_35\n      jumpi\n      dup1\n      0x95d89b41\n      eq\n      tag_37\n      jumpi\n      dup1\n      0xa9059cbb\n      eq\n      tag_39\n      jumpi\n      dup1\n      0xd0e30db0\n      eq\n      tag_41\n      jumpi\n      dup1\n      0xd505accf\n      eq\n      tag_43\n      jumpi\n      0xdd62ed3e\n      sub\n      tag_11\n      jumpi\n      jumpi(tag_49, callvalue)\n      jumpi(tag_49, slt(add(not(0x03), calldatasize), 0x40))\n      tag_51\n      tag_4\n      jump\t// in\n    tag_51:\n      tag_52\n      tag_5\n      jump\t// in\n    tag_52:\n      sub(shl(0xa0, 0x01), 0x01)\n      swap2\n      dup3\n      and\n      0x00\n      swap1\n      dup2\n      mstore\n      0x04\n      0x20\n      swap1\n      dup2\n      mstore\n      0x40\n      dup1\n      dup4\n      keccak256\n      swap5\n      swap1\n      swap4\n      and\n      dup3\n      mstore\n      swap3\n      dup4\n      mstore\n      dup2\n      swap1\n      keccak256\n      sload\n      swap1\n      mload\n      swap1\n      dup2\n      mstore\n      return\n    tag_49:\n      0x00\n      dup1\n      revert\n    tag_43:\n      jumpi(tag_49, callvalue)\n      jumpi(tag_49, slt(add(not(0x03), calldatasize), 0xe0))\n      tag_57\n      tag_4\n      jump\t// in\n    tag_57:\n      tag_58\n      tag_5\n      jump\t// in\n    tag_58:\n      calldataload(0x44)\n      calldataload(0x64)\n      swap3\n      calldataload(0x84)\n      0xff\n      dup2\n      and\n      dup1\n      swap2\n      sub\n      tag_49\n      jumpi\n        /* \"base/ERC20.sol\":3955:3970  block.timestamp */\n      timestamp\n        /* \"base/ERC20.sol\":3943:3970  deadline >= block.timestamp */\n      dup6\n      lt\n        /* \"test/MyToken.sol\":104:1027  contract MyToken is ERC20 {... */\n      tag_61\n      jumpi\n      0x80\n      0x00\n        /* \"base/ERC20.sol\":4326:4344  DOMAIN_SEPARATOR() */\n      swap2\n        /* \"test/MyToken.sol\":104:1027  contract MyToken is ERC20 {... */\n      0x20\n        /* \"base/ERC20.sol\":4326:4344  DOMAIN_SEPARATOR() */\n      swap4\n      tag_63\n      tag_7\n      jump\t// in\n    tag_63:\n        /* \"test/MyToken.sol\":104:1027  contract MyToken is ERC20 {... */\n      swap1\n      0x01\n      dup1\n      0xa0\n      shl\n      sub\n      and\n      swap7\n      dup8\n      dup6\n      mstore\n        /* \"base/ERC20.sol\":4771:4777  nonces */\n      0x05\n        /* \"test/MyToken.sol\":104:1027  contract MyToken is ERC20 {... */\n      dup7\n      mstore\n      0x40\n      dup6\n      keccak256\n      swap9\n      dup10\n      sload\n      swap10\n      0x01\n      dup12\n      add\n      swap1\n      sstore\n      mload(0x40)\n        /* \"base/ERC20.sol\":4409:4858  abi.encode(... */\n      swap1\n      dup8\n      dup3\n      add\n        /* \"test/MyToken.sol\":104:1027  contract MyToken is ERC20 {... */\n      swap3\n        /* \"base/ERC20.sol\":4453:4618  keccak256(... */\n      0x6e71edae12b1b97f4d1f60370fef10105fa2faae0126114a169c64845d6126c9\n        /* \"test/MyToken.sol\":104:1027  contract MyToken is ERC20 {... */\n      dup5\n      mstore\n      dup11\n      0x40\n      dup5\n      add\n      mstore\n      0x01\n      dup1\n      0xa0\n      shl\n      sub\n      and\n      swap11\n      dup12\n      0x60\n      dup5\n      add\n      mstore\n      dup10\n      dup8\n      dup5\n      add\n      mstore\n      0xa0\n      dup4\n      add\n      mstore\n      0xc0\n      dup3\n      add\n      mstore\n      0xc0\n        /* \"base/ERC20.sol\":4409:4858  abi.encode(... */\n      dup2\n      mstore\n      tag_64\n        /* \"test/MyToken.sol\":104:1027  contract MyToken is ERC20 {... */\n      0xe0\n        /* \"base/ERC20.sol\":4409:4858  abi.encode(... */\n      dup3\n      tag_2\n      jump\t// in\n    tag_64:\n        /* \"test/MyToken.sol\":104:1027  contract MyToken is ERC20 {... */\n      mload\n        /* \"base/ERC20.sol\":4370:4884  keccak256(... */\n      swap1\n      keccak256\n        /* \"test/MyToken.sol\":104:1027  contract MyToken is ERC20 {... */\n      mload(0x40)\n        /* \"base/ERC20.sol\":4248:4906  abi.encodePacked(... */\n      swap1\n      dup7\n      dup3\n      add\n        /* \"test/MyToken.sol\":104:1027  contract MyToken is ERC20 {... */\n      swap3\n      shl(0xf0, 0x1901)\n      dup5\n      mstore\n      0x22\n      dup4\n      add\n      mstore\n      0x42\n      dup3\n      add\n      mstore\n      0x42\n        /* \"base/ERC20.sol\":4248:4906  abi.encodePacked(... */\n      dup2\n      mstore\n      tag_65\n      0x62\n      dup3\n      tag_2\n      jump\t// in\n    tag_65:\n        /* \"test/MyToken.sol\":104:1027  contract MyToken is ERC20 {... */\n      mload\n        /* \"base/ERC20.sol\":4217:4924  keccak256(... */\n      swap1\n      keccak256\n        /* \"test/MyToken.sol\":104:1027  contract MyToken is ERC20 {... */\n      swap1\n      mload(0x40)\n      swap2\n      dup3\n      mstore\n      dup5\n      dup3\n      add\n      mstore\n      calldataload(0xa4)\n      0x40\n      dup3\n      add\n      mstore\n      calldataload(0xc4)\n      0x60\n      dup3\n      add\n      mstore\n        /* \"base/ERC20.sol\":4190:4995  ecrecover(... */\n      dup3\n      dup1\n      mstore\n        /* \"test/MyToken.sol\":104:1027  contract MyToken is ERC20 {... */\n      0x01\n        /* \"base/ERC20.sol\":4190:4995  ecrecover(... */\n      gas\n      staticcall\n      iszero\n      tag_66\n      jumpi\n        /* \"test/MyToken.sol\":104:1027  contract MyToken is ERC20 {... */\n      0x00\n        /* \"base/ERC20.sol\":4190:4995  ecrecover(... */\n      mload\n      sub(shl(0xa0, 0x01), 0x01)\n        /* \"test/MyToken.sol\":104:1027  contract MyToken is ERC20 {... */\n      and\n        /* \"base/ERC20.sol\":5018:5048  recoveredAddress != address(0) */\n      dup1\n      iszero\n      iszero\n      dup1\n        /* \"base/ERC20.sol\":5018:5077  recoveredAddress != address(0) && recoveredAddress == owner */\n      tag_68\n      jumpi\n        /* \"test/MyToken.sol\":104:1027  contract MyToken is ERC20 {... */\n    tag_69:\n      iszero\n      tag_70\n      jumpi\n        /* \"base/ERC20.sol\":5181:5212  Approval(owner, spender, value) */\n      0x8c5be1e5ebec7d5bd14f71427d1e84f3dd0314c0f7b2291e5b200ac8c7c3b925\n        /* \"test/MyToken.sol\":104:1027  contract MyToken is ERC20 {... */\n      swap2\n      0x20\n      swap2\n      0x00\n      mstore\n      0x04\n      dup3\n      mstore\n      keccak256(0x00, 0x40)\n      dup6\n      0x00\n      mstore\n      dup3\n      mstore\n      dup1\n      keccak256(0x00, 0x40)\n      sstore\n      mload(0x40)\n      swap1\n      dup2\n      mstore\n        /* \"base/ERC20.sol\":5181:5212  Approval(owner, spender, value) */\n      log3\n        /* \"test/MyToken.sol\":104:1027  contract MyToken is ERC20 {... */\n      stop\n    tag_70:\n      mload(0x40)\n      shl(0xe5, 0x461bcd)\n      dup2\n      mstore\n      0x20\n      0x04\n      dup3\n      add\n      mstore\n      0x0e\n      0x24\n      dup3\n      add\n      mstore\n      shl(0x91, 0x24a72b20a624a22fa9a4a3a722a9)\n      0x44\n      dup3\n      add\n      mstore\n      0x64\n      swap1\n      revert\n        /* \"base/ERC20.sol\":5018:5077  recoveredAddress != address(0) && recoveredAddress == owner */\n    tag_68:\n        /* \"base/ERC20.sol\":5052:5077  recoveredAddress == owner */\n      pop\n      dup3\n      dup2\n      eq\n        /* \"base/ERC20.sol\":5018:5077  recoveredAddress != address(0) && recoveredAddress == owner */\n      jump(tag_69)\n        /* \"base/ERC20.sol\":4190:4995  ecrecover(... */\n    tag_66:\n        /* \"test/MyToken.sol\":104:1027  contract MyToken is ERC20 {... */\n      mload(0x40)\n      returndatasize\n      0x00\n      dup3\n      returndatacopy\n      returndatasize\n      swap1\n      revert\n    tag_61:\n      mload(0x40)\n      shl(0xe5, 0x461bcd)\n      dup2\n      mstore\n      0x20\n      0x04\n      dup3\n      add\n      mstore\n      0x17\n      0x24\n      dup3\n      add\n      mstore\n      shl(0x4a, 0x14115493525517d11150511312539157d1561412549151)\n      0x44\n      dup3\n      add\n      mstore\n      0x64\n      swap1\n      revert\n    tag_41:\n      jumpi(tag_49, slt(add(not(0x03), calldatasize), 0x00))\n      tag_14\n      tag_8\n      jump\t// in\n    tag_39:\n      jumpi(tag_49, callvalue)\n      jumpi(tag_49, slt(add(not(0x03), calldatasize), 0x40))\n      tag_79\n      tag_4\n      jump\t// in\n    tag_79:\n      calldataload(0x24)\n        /* \"base/ERC20.sol\":2744:2754  msg.sender */\n      swap1\n      caller\n        /* \"test/MyToken.sol\":104:1027  contract MyToken is ERC20 {... */\n      0x00\n      mstore\n        /* \"base/ERC20.sol\":2734:2743  balanceOf */\n      0x03\n        /* \"test/MyToken.sol\":104:1027  contract MyToken is ERC20 {... */\n      0x20\n      mstore\n      keccak256(0x00, 0x40)\n        /* \"base/ERC20.sol\":2734:2765  balanceOf[msg.sender] -= amount */\n      tag_80\n        /* \"test/MyToken.sol\":104:1027  contract MyToken is ERC20 {... */\n      dup4\n      dup3\n      sload\n        /* \"base/ERC20.sol\":2734:2765  balanceOf[msg.sender] -= amount */\n      tag_6\n      jump\t// in\n    tag_80:\n        /* \"test/MyToken.sol\":104:1027  contract MyToken is ERC20 {... */\n      swap1\n      sstore\n      0x01\n      dup1\n      0xa0\n      shl\n      sub\n      and\n      swap1\n      dup2\n      0x00\n      mstore\n        /* \"base/ERC20.sol\":2734:2743  balanceOf */\n      0x03\n        /* \"test/MyToken.sol\":104:1027  contract MyToken is ERC20 {... */\n      0x20\n      mstore\n      keccak256(0x00, 0x40)\n      dup2\n      dup2\n      sload\n      add\n      swap1\n      sstore\n      mload(0x40)\n      swap1\n      dup2\n      mstore\n      mload(0x00)\n      codecopy(0x00, data_ada389e1fc24a8587c776340efb91b36e675792ab631816100d55df0b5cf3cbc, 0x20)\n      mload(0x00)\n      swap1\n      0x00\n      mstore\n      0x20\n        /* \"base/ERC20.sol\":2744:2754  msg.sender */\n      caller\n        /* \"base/ERC20.sol\":2960:2992  Transfer(msg.sender, to, amount) */\n      swap3\n      log3\n        /* \"test/MyToken.sol\":104:1027  contract MyToken is ERC20 {... */\n      0x20\n      mload(0x40)\n      0x01\n      dup2\n      mstore\n      return\n    tag_37:\n      jumpi(tag_49, callvalue)\n      jumpi(tag_49, slt(add(not(0x03), calldatasize), 0x00))\n      mload(0x40)\n      0x00\n        /* \"base/ERC20.sol\":1056:1076  string public symbol */\n      0x01\n        /* \"test/MyToken.sol\":104:1027  contract MyToken is ERC20 {... */\n      sload\n      tag_85\n      dup2\n      tag_1\n      jump\t// in\n    tag_85:\n      dup1\n      dup5\n      mstore\n      swap1\n        /* \"base/ERC20.sol\":1056:1076  string public symbol */\n      0x01\n        /* \"test/MyToken.sol\":104:1027  contract MyToken is ERC20 {... */\n      dup2\n      and\n      swap1\n        /* \"base/ERC20.sol\":1056:1076  string public symbol */\n      dup2\n      iszero\n      tag_86\n      jumpi\n        /* \"test/MyToken.sol\":104:1027  contract MyToken is ERC20 {... */\n      pop\n      0x01\n      eq\n      tag_88\n      jumpi\n    tag_89:\n      tag_90\n      dup4\n      tag_91\n      dup2\n      dup6\n      sub\n      dup3\n      tag_2\n      jump\t// in\n    tag_91:\n      mload(0x40)\n      swap2\n      dup3\n      swap2\n      dup3\n      tag_3\n      jump\t// in\n    tag_90:\n      sub\n      swap1\n      return\n    tag_88:\n        /* \"base/ERC20.sol\":1056:1076  string public symbol */\n      0x01\n        /* \"test/MyToken.sol\":104:1027  contract MyToken is ERC20 {... */\n      0x00\n      swap1\n      dup2\n      mstore\n      0xb10e2d527612073b26eecdfd717e6a320cf44b4afac2b0732d9fcbe2b7fa0cf6\n      swap4\n      swap3\n      pop\n      swap1\n    tag_92:\n      dup1\n      dup3\n      lt\n      tag_93\n      jumpi\n      pop\n      swap1\n      swap2\n      pop\n      dup2\n      add\n      0x20\n      add\n      tag_91\n      jump(tag_89)\n    tag_93:\n      swap2\n      swap3\n        /* \"base/ERC20.sol\":1056:1076  string public symbol */\n      0x01\n        /* \"test/MyToken.sol\":104:1027  contract MyToken is ERC20 {... */\n      dup2\n      0x20\n      swap3\n      sload\n      dup4\n      dup6\n      dup9\n      add\n      add\n      mstore\n      add\n      swap2\n      add\n      swap1\n      swap3\n      swap2\n      jump(tag_92)\n    tag_86:\n      not(0xff)\n      and\n      0x20\n      dup1\n      dup7\n      add\n      swap2\n      swap1\n      swap2\n      mstore\n      swap2\n      iszero\n      iszero\n      0x05\n      shl\n      dup5\n      add\n      swap1\n      swap2\n      add\n      swap2\n      pop\n      tag_91\n      swap1\n      pop\n      jump(tag_89)\n    tag_35:\n      jumpi(tag_49, callvalue)\n      jumpi(tag_49, slt(add(not(0x03), calldatasize), 0x00))\n        /* \"test/MyToken.sol\":136:156  address public owner */\n      0x06\n        /* \"test/MyToken.sol\":104:1027  contract MyToken is ERC20 {... */\n      sload\n      mload(0x40)\n      sub(shl(0xa0, 0x01), 0x01)\n      swap1\n      swap2\n      and\n      dup2\n      mstore\n      0x20\n      swap1\n      return\n    tag_33:\n      jumpi(tag_49, callvalue)\n      jumpi(tag_49, slt(add(not(0x03), calldatasize), 0x20))\n      sub(shl(0xa0, 0x01), 0x01)\n      tag_103\n      tag_4\n      jump\t// in\n    tag_103:\n      and\n      0x00\n      mstore\n        /* \"base/ERC20.sol\":1751:1792  mapping(address => uint256) public nonces */\n      0x05\n        /* \"test/MyToken.sol\":104:1027  contract MyToken is ERC20 {... */\n      0x20\n      mstore\n      0x20\n      sload(keccak256(0x00, 0x40))\n      mload(0x40)\n      swap1\n      dup2\n      mstore\n      return\n    tag_31:\n      jumpi(tag_49, callvalue)\n      jumpi(tag_49, slt(add(not(0x03), calldatasize), 0x20))\n      sub(shl(0xa0, 0x01), 0x01)\n      tag_108\n      tag_4\n      jump\t// in\n    tag_108:\n      and\n      0x00\n      mstore\n        /* \"base/ERC20.sol\":1337:1381  mapping(address => uint256) public balanceOf */\n      0x03\n        /* \"test/MyToken.sol\":104:1027  contract MyToken is ERC20 {... */\n      0x20\n      mstore\n      0x20\n      sload(keccak256(0x00, 0x40))\n      mload(0x40)\n      swap1\n      dup2\n      mstore\n      return\n    tag_29:\n      jumpi(tag_49, callvalue)\n      jumpi(tag_49, slt(add(not(0x03), calldatasize), 0x40))\n      tag_113\n      tag_4\n      jump\t// in\n    tag_113:\n      calldataload(0x24)\n        /* \"test/MyToken.sol\":446:455  100000000 */\n      0x05f5e100\n        /* \"test/MyToken.sol\":436:455  amount <= 100000000 */\n      dup2\n      gt\n        /* \"test/MyToken.sol\":104:1027  contract MyToken is ERC20 {... */\n      tag_49\n      jumpi\n      0xff\n        /* \"test/MyToken.sol\":497:505  decimals */\n      immutable(\"0x6585423cb6456b1d4957f6454d2f004f0c4f58d53a00082412d5c2ef4b1b31fd\")\n        /* \"test/MyToken.sol\":104:1027  contract MyToken is ERC20 {... */\n      and\n      0x4d\n      dup2\n      gt\n      tag_118\n      jumpi\n      0x0a\n      exp\n      swap1\n      dup2\n      dup2\n      mul\n      swap2\n      dup2\n      dup4\n      div\n      eq\n      swap1\n      iszero\n      or\n      iszero\n      tag_118\n      jumpi\n        /* \"test/MyToken.sol\":482:505  amount * 10 ** decimals */\n      tag_14\n      swap2\n      tag_9\n      jump\t// in\n        /* \"test/MyToken.sol\":104:1027  contract MyToken is ERC20 {... */\n    tag_118:\n      mstore(0x00, shl(0xe0, 0x4e487b71))\n      mstore(0x04, 0x11)\n      revert(0x00, 0x24)\n    tag_27:\n      jumpi(tag_49, callvalue)\n      jumpi(tag_49, slt(add(not(0x03), calldatasize), 0x00))\n      0x20\n      tag_125\n      tag_7\n      jump\t// in\n    tag_125:\n      mload(0x40)\n      swap1\n      dup2\n      mstore\n      return\n    tag_25:\n      jumpi(tag_49, callvalue)\n      jumpi(tag_49, slt(add(not(0x03), calldatasize), 0x00))\n      0x20\n      mload(0x40)\n      0xff\n        /* \"base/ERC20.sol\":1083:1114  uint8 public immutable decimals */\n      immutable(\"0x6585423cb6456b1d4957f6454d2f004f0c4f58d53a00082412d5c2ef4b1b31fd\")\n        /* \"test/MyToken.sol\":104:1027  contract MyToken is ERC20 {... */\n      and\n      dup2\n      mstore\n      return\n    tag_23:\n      jumpi(tag_49, callvalue)\n      jumpi(tag_49, slt(add(not(0x03), calldatasize), 0x20))\n      0x00\n      dup1\n      dup1\n      dup1\n      calldataload(0x04)\n        /* \"test/MyToken.sol\":839:849  msg.sender */\n      caller\n        /* \"test/MyToken.sol\":104:1027  contract MyToken is ERC20 {... */\n      dup3\n      mstore\n        /* \"base/ERC20.sol\":6407:6416  balanceOf */\n      0x03\n        /* \"test/MyToken.sol\":104:1027  contract MyToken is ERC20 {... */\n      0x20\n      mstore\n      0x40\n      dup3\n      keccak256\n        /* \"base/ERC20.sol\":6407:6432  balanceOf[from] -= amount */\n      tag_134\n        /* \"test/MyToken.sol\":104:1027  contract MyToken is ERC20 {... */\n      dup3\n      dup3\n      sload\n        /* \"base/ERC20.sol\":6407:6432  balanceOf[from] -= amount */\n      tag_6\n      jump\t// in\n    tag_134:\n        /* \"test/MyToken.sol\":104:1027  contract MyToken is ERC20 {... */\n      swap1\n      sstore\n      dup1\n        /* \"base/ERC20.sol\":6575:6596  totalSupply -= amount */\n      0x02\n        /* \"test/MyToken.sol\":104:1027  contract MyToken is ERC20 {... */\n      sload\n      sub\n        /* \"base/ERC20.sol\":6575:6596  totalSupply -= amount */\n      0x02\n        /* \"test/MyToken.sol\":104:1027  contract MyToken is ERC20 {... */\n      sstore\n      dup2\n      mload(0x40)\n      dup3\n      dup2\n      mstore\n      mload(0x00)\n      codecopy(0x00, data_ada389e1fc24a8587c776340efb91b36e675792ab631816100d55df0b5cf3cbc, 0x20)\n      mload(0x00)\n      swap1\n      0x00\n      mstore\n      0x20\n        /* \"test/MyToken.sol\":839:849  msg.sender */\n      caller\n        /* \"base/ERC20.sol\":6622:6656  Transfer(from, address(0), amount) */\n      swap3\n      log3\n        /* \"test/MyToken.sol\":104:1027  contract MyToken is ERC20 {... */\n      mload(0x40)\n      dup2\n      dup2\n      mstore\n        /* \"test/MyToken.sol\":874:904  Withdrawal(msg.sender, amount) */\n      0x7fcf532c15f0a6db0bd6d0e038bea71d30d808c7d98cb3bf7268a95bf5081b65\n        /* \"test/MyToken.sol\":104:1027  contract MyToken is ERC20 {... */\n      0x20\n        /* \"test/MyToken.sol\":839:849  msg.sender */\n      caller\n        /* \"test/MyToken.sol\":874:904  Withdrawal(msg.sender, amount) */\n      swap3\n      log2\n        /* \"test/MyToken.sol\":915:951  payable(msg.sender).transfer(amount) */\n      dup2\n      dup2\n      iszero\n      tag_135\n      jumpi\n        /* \"test/MyToken.sol\":104:1027  contract MyToken is ERC20 {... */\n    tag_136:\n        /* \"test/MyToken.sol\":839:849  msg.sender */\n      caller\n        /* \"test/MyToken.sol\":915:951  payable(msg.sender).transfer(amount) */\n      swap1\n      call\n      iszero\n      tag_66\n      jumpi\n        /* \"test/MyToken.sol\":104:1027  contract MyToken is ERC20 {... */\n      stop\n        /* \"test/MyToken.sol\":915:951  payable(msg.sender).transfer(amount) */\n    tag_135:\n      pop\n      0x08fc\n      jump(tag_136)\n        /* \"test/MyToken.sol\":104:1027  contract MyToken is ERC20 {... */\n    tag_21:\n      jumpi(tag_49, callvalue)\n      jumpi(tag_49, slt(add(not(0x03), calldatasize), 0x60))\n      tag_143\n      tag_4\n      jump\t// in\n    tag_143:\n      tag_144\n      tag_5\n      jump\t// in\n    tag_144:\n      sub(shl(0xa0, 0x01), 0x01)\n      swap1\n      swap2\n      and\n      0x00\n      dup2\n      dup2\n      mstore\n      0x04\n      0x20\n      swap1\n      dup2\n      mstore\n      0x40\n      dup1\n      dup4\n      keccak256\n        /* \"base/ERC20.sol\":3165:3175  msg.sender */\n      caller\n        /* \"test/MyToken.sol\":104:1027  contract MyToken is ERC20 {... */\n      dup5\n      mstore\n      dup3\n      mstore\n      swap1\n      swap2\n      keccak256\n      sload\n      calldataload(0x44)\n      swap4\n      mload(0x00)\n      codecopy(0x00, data_ada389e1fc24a8587c776340efb91b36e675792ab631816100d55df0b5cf3cbc, 0x20)\n      mload(0x00)\n      swap1\n      0x00\n      mstore\n        /* \"base/ERC20.sol\":3534:3560  Transfer(from, to, amount) */\n      swap3\n        /* \"test/MyToken.sol\":104:1027  contract MyToken is ERC20 {... */\n      swap2\n      dup6\n      0x01\n        /* \"base/ERC20.sol\":3227:3255  allowed != type(uint256).max */\n      dup3\n      add\n        /* \"base/ERC20.sol\":3223:3303  if (allowed != type(uint256).max) allowance[from][msg.sender] = allowed - amount */\n      tag_145\n      jumpi\n        /* \"test/MyToken.sol\":104:1027  contract MyToken is ERC20 {... */\n    tag_146:\n      pop\n      pop\n      dup4\n      0x00\n      mstore\n        /* \"base/ERC20.sol\":3314:3323  balanceOf */\n      0x03\n        /* \"test/MyToken.sol\":104:1027  contract MyToken is ERC20 {... */\n      dup3\n      mstore\n      keccak256(0x00, 0x40)\n        /* \"base/ERC20.sol\":3314:3339  balanceOf[from] -= amount */\n      tag_147\n        /* \"test/MyToken.sol\":104:1027  contract MyToken is ERC20 {... */\n      dup7\n      dup3\n      sload\n        /* \"base/ERC20.sol\":3314:3339  balanceOf[from] -= amount */\n      tag_6\n      jump\t// in\n    tag_147:\n        /* \"test/MyToken.sol\":104:1027  contract MyToken is ERC20 {... */\n      swap1\n      sstore\n      sub(shl(0xa0, 0x01), 0x01)\n      and\n      0x00\n      dup2\n      dup2\n      mstore\n        /* \"base/ERC20.sol\":3314:3323  balanceOf */\n      0x03\n        /* \"test/MyToken.sol\":104:1027  contract MyToken is ERC20 {... */\n      dup4\n      mstore\n      0x40\n      swap1\n      dup2\n      swap1\n      keccak256\n      dup1\n      sload\n      dup8\n      add\n      swap1\n      sstore\n      mload\n      swap5\n      dup6\n      mstore\n      swap4\n        /* \"base/ERC20.sol\":3534:3560  Transfer(from, to, amount) */\n      log3\n        /* \"test/MyToken.sol\":104:1027  contract MyToken is ERC20 {... */\n      0x20\n      mload(0x40)\n      0x01\n      dup2\n      mstore\n      return\n        /* \"base/ERC20.sol\":3223:3303  if (allowed != type(uint256).max) allowance[from][msg.sender] = allowed - amount */\n    tag_145:\n        /* \"base/ERC20.sol\":3287:3303  allowed - amount */\n      tag_148\n      swap2\n      tag_6\n      jump\t// in\n    tag_148:\n        /* \"test/MyToken.sol\":104:1027  contract MyToken is ERC20 {... */\n      0x00\n      dup6\n      dup2\n      mstore\n      0x04\n      dup5\n      mstore\n      0x40\n      dup1\n      dup3\n      keccak256\n        /* \"base/ERC20.sol\":3165:3175  msg.sender */\n      caller\n        /* \"test/MyToken.sol\":104:1027  contract MyToken is ERC20 {... */\n      dup4\n      mstore\n      dup6\n      mstore\n      swap1\n      keccak256\n      sstore\n        /* \"base/ERC20.sol\":3223:3303  if (allowed != type(uint256).max) allowance[from][msg.sender] = allowed - amount */\n      dup6\n      dup6\n      jump(tag_146)\n        /* \"test/MyToken.sol\":104:1027  contract MyToken is ERC20 {... */\n    tag_19:\n      jumpi(tag_49, callvalue)\n      jumpi(tag_49, slt(add(not(0x03), calldatasize), 0x00))\n      0x20\n        /* \"base/ERC20.sol\":1304:1330  uint256 public totalSupply */\n      0x02\n        /* \"test/MyToken.sol\":104:1027  contract MyToken is ERC20 {... */\n      sload\n      mload(0x40)\n      swap1\n      dup2\n      mstore\n      return\n    tag_17:\n      jumpi(tag_49, callvalue)\n      jumpi(tag_49, slt(add(not(0x03), calldatasize), 0x40))\n      tag_157\n      tag_4\n      jump\t// in\n    tag_157:\n        /* \"base/ERC20.sol\":2531:2541  msg.sender */\n      caller\n        /* \"test/MyToken.sol\":104:1027  contract MyToken is ERC20 {... */\n      0x00\n      dup2\n      dup2\n      mstore\n      0x04\n      0x20\n      swap1\n      dup2\n      mstore\n      0x40\n      dup1\n      dup4\n      keccak256\n      sub(shl(0xa0, 0x01), 0x01)\n      swap1\n      swap6\n      and\n      dup1\n      dup5\n      mstore\n      swap5\n      dup3\n      mstore\n      swap2\n      dup3\n      swap1\n      keccak256\n      calldataload(0x24)\n      swap1\n      dup2\n      swap1\n      sstore\n      swap2\n      mload\n      swap2\n      dup3\n      mstore\n        /* \"base/ERC20.sol\":2576:2613  Approval(msg.sender, spender, amount) */\n      0x8c5be1e5ebec7d5bd14f71427d1e84f3dd0314c0f7b2291e5b200ac8c7c3b925\n      swap2\n      log3\n        /* \"test/MyToken.sol\":104:1027  contract MyToken is ERC20 {... */\n      0x20\n      mload(0x40)\n      0x01\n      dup2\n      mstore\n      return\n    tag_15:\n      jumpi(tag_49, callvalue)\n      jumpi(tag_49, slt(add(not(0x03), calldatasize), 0x00))\n      mload(0x40)\n      0x00\n      sload(0x00)\n      tag_162\n      dup2\n      tag_1\n      jump\t// in\n    tag_162:\n      dup1\n      dup5\n      mstore\n      swap1\n      0x01\n      dup2\n      and\n      swap1\n      dup2\n      iszero\n      tag_86\n      jumpi\n      pop\n      0x01\n      eq\n      tag_165\n      jumpi\n      tag_90\n      dup4\n      tag_91\n      dup2\n      dup6\n      sub\n      dup3\n      tag_2\n      jump\t// in\n    tag_165:\n      0x00\n      dup1\n      dup1\n      mstore\n      0x290decd9548b62a8d60345a988386fc84ba6bc95484008f6362f93160ef3e563\n      swap4\n      swap3\n      pop\n      swap1\n    tag_169:\n      dup1\n      dup3\n      lt\n      tag_170\n      jumpi\n      pop\n      swap1\n      swap2\n      pop\n      dup2\n      add\n      0x20\n      add\n      tag_91\n      jump(tag_89)\n    tag_170:\n      swap2\n      swap3\n      0x01\n      dup2\n      0x20\n      swap3\n      sload\n      dup4\n      dup6\n      dup9\n      add\n      add\n      mstore\n      add\n      swap2\n      add\n      swap1\n      swap3\n      swap2\n      jump(tag_169)\n    tag_1:\n      swap1\n      0x01\n      dup3\n      dup2\n      shr\n      swap3\n      and\n      dup1\n      iszero\n      tag_172\n      jumpi\n    tag_173:\n      0x20\n      dup4\n      lt\n      eq\n      tag_174\n      jumpi\n      jump\t// out\n    tag_174:\n      mstore(0x00, shl(0xe0, 0x4e487b71))\n      mstore(0x04, 0x22)\n      revert(0x00, 0x24)\n    tag_172:\n      swap2\n      0x7f\n      and\n      swap2\n      jump(tag_173)\n    tag_2:\n      swap1\n      0x1f\n      dup1\n      not\n      swap2\n      add\n      and\n      dup2\n      add\n      swap1\n      dup2\n      lt\n      0xffffffffffffffff\n      dup3\n      gt\n      or\n      tag_176\n      jumpi\n      0x40\n      mstore\n      jump\t// out\n    tag_176:\n      mstore(0x00, shl(0xe0, 0x4e487b71))\n      mstore(0x04, 0x41)\n      revert(0x00, 0x24)\n    tag_3:\n      0x20\n      0x40\n      swap3\n      dup2\n      dup4\n      mstore\n      dup1\n      mload\n      swap2\n      dup3\n      swap2\n      dup3\n      dup3\n      dup7\n      add\n      mstore\n      add\n      dup5\n      dup5\n      add\n      mcopy\n      0x00\n      dup3\n      dup3\n      add\n      dup5\n      add\n      mstore\n      0x1f\n      add\n      not(0x1f)\n      and\n      add\n      add\n      swap1\n      jump\t// out\n    tag_4:\n      calldataload(0x04)\n      swap1\n      sub(shl(0xa0, 0x01), 0x01)\n      dup3\n      and\n      dup3\n      sub\n      tag_49\n      jumpi\n      jump\t// out\n    tag_5:\n      calldataload(0x24)\n      swap1\n      sub(shl(0xa0, 0x01), 0x01)\n      dup3\n      and\n      dup3\n      sub\n      tag_49\n      jumpi\n      jump\t// out\n    tag_6:\n      swap2\n      swap1\n      dup3\n      sub\n      swap2\n      dup3\n      gt\n      tag_118\n      jumpi\n      jump\t// out\n        /* \"base/ERC20.sol\":5225:5402  function DOMAIN_SEPARATOR() public view virtual returns (bytes32) {... */\n    tag_7:\n        /* \"base/ERC20.sol\":5308:5321  block.chainid */\n      chainid\n        /* \"base/ERC20.sol\":5325:5341  INITIAL_CHAIN_ID */\n      immutable(\"0xd67d834462ca31eaef1f30157e31659f60355143b7441e6fc7d9eae1fa79f3f8\")\n        /* \"base/ERC20.sol\":5308:5341  block.chainid == INITIAL_CHAIN_ID */\n      sub\n        /* \"base/ERC20.sol\":5325:5341  INITIAL_CHAIN_ID */\n      tag_184\n      jumpi\n        /* \"base/ERC20.sol\":5344:5368  INITIAL_DOMAIN_SEPARATOR */\n      immutable(\"0x880de8116b3dfac28e9ff528a9fef1d1e0a51449c1addce011ffec1f302992b6\")\n        /* \"base/ERC20.sol\":5225:5402  function DOMAIN_SEPARATOR() public view virtual returns (bytes32) {... */\n      swap1\n      jump\t// out\n        /* \"base/ERC20.sol\":5308:5395  block.chainid == INITIAL_CHAIN_ID ? INITIAL_DOMAIN_SEPARATOR : computeDomainSeparator() */\n    tag_184:\n        /* \"test/MyToken.sol\":104:1027  contract MyToken is ERC20 {... */\n      mload(0x40)\n      0x00\n      swap1\n      sload(0x00)\n      swap2\n      dup2\n      tag_187\n      dup5\n      tag_1\n      jump\t// in\n    tag_187:\n      swap2\n      dup3\n      dup3\n      mstore\n      0x20\n      dup3\n      add\n      swap5\n      0x01\n      dup2\n      and\n      swap1\n      dup2\n      0x00\n      eq\n      tag_188\n      jumpi\n      pop\n      0x01\n      eq\n      tag_190\n      jumpi\n    tag_191:\n      tag_192\n      swap3\n      pop\n      sub\n      dup3\n      tag_2\n      jump\t// in\n    tag_192:\n      mload\n        /* \"base/ERC20.sol\":5663:5685  keccak256(bytes(name)) */\n      swap1\n      keccak256\n        /* \"test/MyToken.sol\":104:1027  contract MyToken is ERC20 {... */\n      mload(0x40)\n      0x20\n        /* \"base/ERC20.sol\":5522:5793  abi.encode(... */\n      dup2\n      add\n        /* \"test/MyToken.sol\":104:1027  contract MyToken is ERC20 {... */\n      swap2\n        /* \"base/ERC20.sol\":5550:5645  keccak256(\"EIP712Domain(string name,string version,uint256 chainId,address verifyingContract)\") */\n      0x8b73c3c69bb8fe3d512ecc4cf759cc79239f7b179b0ffacaa9a75d522b39400f\n        /* \"test/MyToken.sol\":104:1027  contract MyToken is ERC20 {... */\n      dup4\n      mstore\n      0x40\n      dup3\n      add\n      mstore\n        /* \"base/ERC20.sol\":5703:5717  keccak256(\"1\") */\n      0xc89efdaa54c0f20c7adf612882df0950f5a951637e0307cdcb4c672f298b8bc6\n        /* \"test/MyToken.sol\":104:1027  contract MyToken is ERC20 {... */\n      0x60\n      dup3\n      add\n      mstore\n        /* \"base/ERC20.sol\":5308:5321  block.chainid */\n      chainid\n        /* \"test/MyToken.sol\":104:1027  contract MyToken is ERC20 {... */\n      0x80\n      dup3\n      add\n      mstore\n        /* \"base/ERC20.sol\":5774:5778  this */\n      address\n        /* \"test/MyToken.sol\":104:1027  contract MyToken is ERC20 {... */\n      0xa0\n      dup3\n      add\n      mstore\n      0xa0\n        /* \"base/ERC20.sol\":5522:5793  abi.encode(... */\n      dup2\n      mstore\n      tag_193\n      0xc0\n      dup3\n      tag_2\n      jump\t// in\n    tag_193:\n        /* \"test/MyToken.sol\":104:1027  contract MyToken is ERC20 {... */\n      mload\n        /* \"base/ERC20.sol\":5499:5803  keccak256(... */\n      swap1\n      keccak256\n        /* \"base/ERC20.sol\":5225:5402  function DOMAIN_SEPARATOR() public view virtual returns (bytes32) {... */\n      swap1\n      jump\t// out\n        /* \"test/MyToken.sol\":104:1027  contract MyToken is ERC20 {... */\n    tag_190:\n      pop\n      0x00\n      dup1\n      dup1\n      mstore\n      swap1\n      swap2\n      0x290decd9548b62a8d60345a988386fc84ba6bc95484008f6362f93160ef3e563\n    tag_194:\n      dup2\n      dup4\n      lt\n      tag_195\n      jumpi\n      pop\n      pop\n      swap1\n      0x20\n      tag_192\n      swap3\n      dup3\n      add\n      add\n      jump(tag_191)\n    tag_195:\n      0x20\n      swap2\n      swap4\n      pop\n      dup1\n      0x01\n      swap2\n      sload\n      dup4\n      dup6\n      dup9\n      add\n      add\n      mstore\n      add\n      swap2\n      add\n      swap1\n      swap2\n      dup4\n      swap3\n      jump(tag_194)\n    tag_188:\n      not(0xff)\n      and\n      dup7\n      mstore\n      pop\n      tag_192\n      swap3\n      iszero\n      iszero\n      0x05\n      shl\n      dup3\n      add\n      0x20\n      add\n      swap1\n      pop\n      jump(tag_191)\n        /* \"test/MyToken.sol\":636:768  function deposit() public payable virtual {... */\n    tag_8:\n        /* \"test/MyToken.sol\":104:1027  contract MyToken is ERC20 {... */\n      mload(0x40)\n        /* \"test/MyToken.sol\":713:722  msg.value */\n      callvalue\n        /* \"test/MyToken.sol\":104:1027  contract MyToken is ERC20 {... */\n      dup2\n      mstore\n        /* \"test/MyToken.sol\":693:723  Deposit(msg.sender, msg.value) */\n      0xe1fffcc4923d04b559f4d29a8bfc6cda04eb5b0d3c460751c2402c5c5cc9109c\n        /* \"test/MyToken.sol\":104:1027  contract MyToken is ERC20 {... */\n      0x20\n        /* \"test/MyToken.sol\":701:711  msg.sender */\n      caller\n        /* \"test/MyToken.sol\":693:723  Deposit(msg.sender, msg.value) */\n      swap3\n      log2\n        /* \"test/MyToken.sol\":751:760  msg.value */\n      tag_197\n        /* \"test/MyToken.sol\":713:722  msg.value */\n      callvalue\n        /* \"test/MyToken.sol\":701:711  msg.sender */\n      caller\n        /* \"test/MyToken.sol\":751:760  msg.value */\n      tag_9\n      jump\t// in\n    tag_197:\n        /* \"test/MyToken.sol\":636:768  function deposit() public payable virtual {... */\n      jump\t// out\n        /* \"base/ERC20.sol\":6004:6329  function _mint(address to, uint256 amount) internal virtual {... */\n    tag_9:\n        /* \"base/ERC20.sol\":6074:6095  totalSupply += amount */\n      0x02\n        /* \"test/MyToken.sol\":104:1027  contract MyToken is ERC20 {... */\n      sload\n      swap1\n      dup3\n      dup3\n      add\n      dup1\n      swap3\n      gt\n      tag_118\n      jumpi\n      0x20\n      mload(0x00)\n      codecopy(0x00, data_ada389e1fc24a8587c776340efb91b36e675792ab631816100d55df0b5cf3cbc, 0x20)\n      mload(0x00)\n      swap1\n      0x00\n      mstore\n      swap2\n      0x00\n      swap4\n        /* \"base/ERC20.sol\":6074:6095  totalSupply += amount */\n      0x02\n        /* \"test/MyToken.sol\":104:1027  contract MyToken is ERC20 {... */\n      sstore\n      0x01\n      dup1\n      0xa0\n      shl\n      sub\n      and\n      swap4\n      dup5\n      dup5\n      mstore\n        /* \"base/ERC20.sol\":6241:6250  balanceOf */\n      0x03\n        /* \"test/MyToken.sol\":104:1027  contract MyToken is ERC20 {... */\n      dup3\n      mstore\n      0x40\n      dup5\n      keccak256\n      dup2\n      dup2\n      sload\n      add\n      swap1\n      sstore\n      mload(0x40)\n      swap1\n      dup2\n      mstore\n        /* \"base/ERC20.sol\":6290:6322  Transfer(address(0), to, amount) */\n      log3\n        /* \"base/ERC20.sol\":6004:6329  function _mint(address to, uint256 amount) internal virtual {... */\n      jump\t// out\n    stop\n    data_ada389e1fc24a8587c776340efb91b36e675792ab631816100d55df0b5cf3cbc ddf252ad1be2c89b69c2b068fc378daa952ba7f163c4a11628f55a4df523b3ef\n\n    auxdata: 0xa26469706673582212202b15426cd270c4b1ffbd1b668e47cb9703e2e99348ab293b08c52be25a8f076c64736f6c634300081d0033\n}\n",
				"bytecode": {
					"linkReferences": {},
					"object": "60e080604052346104a757611149803803809161001c82856104ab565b83398101906060818303126104a75780516001600160401b0381116104a757826100479183016104ce565b60208201519092906001600160401b0381116104a75760409161006b9184016104ce565b91015160ff811681036104a75782516001600160401b0381116103d8576100925f54610523565b601f8111610458575b506020601f82116001146103f757819293945f926103ec575b50508160011b915f199060031b1c1916175f555b81516001600160401b0381116103d8576100e3600154610523565b601f8111610375575b50602092601f821160011461031457928192935f92610309575b50508160011b915f199060031b1c1916176001555b6080524660a0526040515f905f54918161013484610523565b9182825260208201946001811690815f146102ed57506001146102a3575b61015e925003826104ab565b51902060405160208101917f8b73c3c69bb8fe3d512ecc4cf759cc79239f7b179b0ffacaa9a75d522b39400f835260408201527fc89efdaa54c0f20c7adf612882df0950f5a951637e0307cdcb4c672f298b8bc660608201524660808201523060a082015260a081526101d260c0826104ab565b51902060c052600680546001600160a01b0319163317905560805160ff16604d811161028f57600a0a806305f5e10002906305f5e10082040361028f5760025481810180911161028f57600255335f52600360205260405f208181540190556040519081525f7fddf252ad1be2c89b69c2b068fc378daa952ba7f163c4a11628f55a4df523b3ef60203393a3604051610bcd908161055c823960805181818161055301526105e7015260a05181610981015260c051816109a70152f35b634e487b7160e01b5f52601160045260245ffd5b505f80805290915f5160206111295f395f51905f525b8183106102d157505090602061015e92820101610152565b60209193508060019154838588010152019101909183926102b9565b60ff191686525061015e92151560051b82016020019050610152565b015190505f80610106565b601f1982169360015f52805f20915f5b86811061035d5750836001959610610345575b505050811b0160015561011b565b01515f1960f88460031b161c191690555f8080610337565b91926020600181928685015181550194019201610324565b60015f527fb10e2d527612073b26eecdfd717e6a320cf44b4afac2b0732d9fcbe2b7fa0cf6601f830160051c810191602084106103ce575b601f0160051c01905b8181106103c357506100ec565b5f81556001016103b6565b90915081906103ad565b634e487b7160e01b5f52604160045260245ffd5b015190505f806100b4565b601f198216905f8052805f20915f5b81811061044057509583600195969710610428575b505050811b015f556100c8565b01515f1960f88460031b161c191690555f808061041b565b9192602060018192868b015181550194019201610406565b5f80525f5160206111295f395f51905f52601f830160051c8101916020841061049d575b601f0160051c01905b818110610492575061009b565b5f8155600101610485565b909150819061047c565b5f80fd5b601f909101601f19168101906001600160401b038211908210176103d857604052565b81601f820112156104a7578051906001600160401b0382116103d85760405192610502601f8401601f1916602001856104ab565b828452602083830101116104a757815f9260208093018386015e8301015290565b90600182811c92168015610551575b602083101461053d57565b634e487b7160e01b5f52602260045260245ffd5b91607f169161053256fe60806040526004361015610022575b3615610018575f80fd5b610020610af8565b005b5f3560e01c806306fdde031461080b578063095ea7b31461079257806318160ddd1461077557806323b872dd146106a55780632e1a7d4d1461060b578063313ce567146105ce5780633644e515146105ac57806340c10f191461052857806370a08231146104f05780637ecebe00146104b85780638da5cb5b1461049057806395d89b41146103b6578063a9059cbb14610341578063d0e30db01461032e578063d505accf1461012a5763dd62ed3e0361000e5734610126576040366003190112610126576100ef610945565b6100f761095b565b6001600160a01b039182165f908152600460209081526040808320949093168252928352819020549051908152f35b5f80fd5b346101265760e036600319011261012657610143610945565b61014b61095b565b6044356064359260843560ff8116809103610126574285106102ef5760805f9160209361017661097e565b9060018060a01b03169687855260058652604085209889549960018b01905560405190878201927f6e71edae12b1b97f4d1f60370fef10105fa2faae0126114a169c64845d6126c984528a604084015260018060a01b03169a8b6060840152898784015260a083015260c082015260c081526101f360e0826108e5565b519020604051908682019261190160f01b8452602283015260428201526042815261021f6062826108e5565b519020906040519182528482015260a435604082015260c435606082015282805260015afa156102e4575f516001600160a01b0316801515806102db575b156102a5577f8c5be1e5ebec7d5bd14f71427d1e84f3dd0314c0f7b2291e5b200ac8c7c3b925916020915f526004825260405f20855f5282528060405f2055604051908152a3005b60405162461bcd60e51b815260206004820152600e60248201526d24a72b20a624a22fa9a4a3a722a960911b6044820152606490fd5b5082811461025d565b6040513d5f823e3d90fd5b60405162461bcd60e51b815260206004820152601760248201527614115493525517d11150511312539157d1561412549151604a1b6044820152606490fd5b5f36600319011261012657610020610af8565b346101265760403660031901126101265761035a610945565b60243590335f52600360205260405f20610375838254610971565b905560018060a01b031690815f52600360205260405f208181540190556040519081525f516020610b785f395f51905f5260203392a3602060405160018152f35b34610126575f366003190112610126576040515f6001546103d6816108ad565b808452906001811690811561046c575060011461040e575b61040a836103fe818503826108e5565b6040519182918261091b565b0390f35b60015f9081527fb10e2d527612073b26eecdfd717e6a320cf44b4afac2b0732d9fcbe2b7fa0cf6939250905b808210610452575090915081016020016103fe6103ee565b91926001816020925483858801015201910190929161043a565b60ff191660208086019190915291151560051b840190910191506103fe90506103ee565b34610126575f366003190112610126576006546040516001600160a01b039091168152602090f35b34610126576020366003190112610126576001600160a01b036104d9610945565b165f526005602052602060405f2054604051908152f35b34610126576020366003190112610126576001600160a01b03610511610945565b165f526003602052602060405f2054604051908152f35b3461012657604036600319011261012657610541610945565b6024356305f5e10081116101265760ff7f000000000000000000000000000000000000000000000000000000000000000016604d811161059857600a0a908181029181830414901517156105985761002091610b30565b634e487b7160e01b5f52601160045260245ffd5b34610126575f3660031901126101265760206105c661097e565b604051908152f35b34610126575f36600319011261012657602060405160ff7f0000000000000000000000000000000000000000000000000000000000000000168152f35b34610126576020366003190112610126575f80808060043533825260036020526040822061063a828254610971565b90558060025403600255816040518281525f516020610b785f395f51905f5260203392a36040518181527f7fcf532c15f0a6db0bd6d0e038bea71d30d808c7d98cb3bf7268a95bf5081b6560203392a281811561069c575b3390f1156102e457005b506108fc610692565b34610126576060366003190112610126576106be610945565b6106c661095b565b6001600160a01b039091165f818152600460209081526040808320338452825290912054604435935f516020610b785f395f51905f5292918560018201610750575b5050835f526003825260405f20610720868254610971565b90556001600160a01b03165f818152600383526040908190208054870190555194855293a3602060405160018152f35b61075991610971565b5f85815260048452604080822033835285529020558585610708565b34610126575f366003190112610126576020600254604051908152f35b34610126576040366003190112610126576107ab610945565b335f8181526004602090815260408083206001600160a01b03909516808452948252918290206024359081905591519182527f8c5be1e5ebec7d5bd14f71427d1e84f3dd0314c0f7b2291e5b200ac8c7c3b92591a3602060405160018152f35b34610126575f366003190112610126576040515f5f5461082a816108ad565b808452906001811690811561046c57506001146108515761040a836103fe818503826108e5565b5f8080527f290decd9548b62a8d60345a988386fc84ba6bc95484008f6362f93160ef3e563939250905b808210610893575090915081016020016103fe6103ee565b91926001816020925483858801015201910190929161087b565b90600182811c921680156108db575b60208310146108c757565b634e487b7160e01b5f52602260045260245ffd5b91607f16916108bc565b90601f8019910116810190811067ffffffffffffffff82111761090757604052565b634e487b7160e01b5f52604160045260245ffd5b602060409281835280519182918282860152018484015e5f828201840152601f01601f1916010190565b600435906001600160a01b038216820361012657565b602435906001600160a01b038216820361012657565b9190820391821161059857565b467f0000000000000000000000000000000000000000000000000000000000000000036109c9577f000000000000000000000000000000000000000000000000000000000000000090565b6040515f905f5491816109db846108ad565b9182825260208201946001811690815f14610adc5750600114610a7f575b610a05925003826108e5565b51902060405160208101917f8b73c3c69bb8fe3d512ecc4cf759cc79239f7b179b0ffacaa9a75d522b39400f835260408201527fc89efdaa54c0f20c7adf612882df0950f5a951637e0307cdcb4c672f298b8bc660608201524660808201523060a082015260a08152610a7960c0826108e5565b51902090565b505f80805290917f290decd9548b62a8d60345a988386fc84ba6bc95484008f6362f93160ef3e5635b818310610ac0575050906020610a05928201016109f9565b6020919350806001915483858801015201910190918392610aa8565b60ff1916865250610a0592151560051b820160200190506109f9565b6040513481527fe1fffcc4923d04b559f4d29a8bfc6cda04eb5b0d3c460751c2402c5c5cc9109c60203392a2610b2e3433610b30565b565b600254908282018092116105985760205f516020610b785f395f51905f52915f9360025560018060a01b0316938484526003825260408420818154019055604051908152a356feddf252ad1be2c89b69c2b068fc378daa952ba7f163c4a11628f55a4df523b3efa26469706673582212202b15426cd270c4b1ffbd1b668e47cb9703e2e99348ab293b08c52be25a8f076c64736f6c634300081d0033290decd9548b62a8d60345a988386fc84ba6bc95484008f6362f93160ef3e563",
					"opcodes": "PUSH1 0xE0 DUP1 PUSH1 0x40 MSTORE CALLVALUE PUSH2 0x4A7 JUMPI PUSH2 0x1149 DUP1 CODESIZE SUB DUP1 SWAP2 PUSH2 0x1C DUP3 DUP6 PUSH2 0x4AB JUMP JUMPDEST DUP4 CODECOPY DUP2 ADD SWAP1 PUSH1 0x60 DUP2 DUP4 SUB SLT PUSH2 0x4A7 JUMPI DUP1 MLOAD PUSH1 0x1 PUSH1 0x1 PUSH1 0x40 SHL SUB DUP2 GT PUSH2 0x4A7 JUMPI DUP3 PUSH2 0x47 SWAP2 DUP4 ADD PUSH2 0x4CE JUMP JUMPDEST PUSH1 0x20 DUP3 ADD MLOAD SWAP1 SWAP3 SWAP1 PUSH1 0x1 PUSH1 0x1 PUSH1 0x40 SHL SUB DUP2 GT PUSH2 0x4A7 JUMPI PUSH1 0x40 SWAP2 PUSH2 0x6B SWAP2 DUP5 ADD PUSH2 0x4CE JUMP JUMPDEST SWAP2 ADD MLOAD PUSH1 0xFF DUP2 AND DUP2 SUB PUSH2 0x4A7 JUMPI DUP3 MLOAD PUSH1 0x1 PUSH1 0x1 PUSH1 0x40 SHL SUB DUP2 GT PUSH2 0x3D8 JUMPI PUSH2 0x92 PUSH0 SLOAD PUSH2 0x523 JUMP JUMPDEST PUSH1 0x1F DUP2 GT PUSH2 0x458 JUMPI JUMPDEST POP PUSH1 0x20 PUSH1 0x1F DUP3 GT PUSH1 0x1 EQ PUSH2 0x3F7 JUMPI DUP2 SWAP3 SWAP4 SWAP5 PUSH0 SWAP3 PUSH2 0x3EC JUMPI JUMPDEST POP POP DUP2 PUSH1 0x1 SHL SWAP2 PUSH0 NOT SWAP1 PUSH1 0x3 SHL SHR NOT AND OR PUSH0 SSTORE JUMPDEST DUP2 MLOAD PUSH1 0x1 PUSH1 0x1 PUSH1 0x40 SHL SUB DUP2 GT PUSH2 0x3D8 JUMPI PUSH2 0xE3 PUSH1 0x1 SLOAD PUSH2 0x523 JUMP JUMPDEST PUSH1 0x1F DUP2 GT PUSH2 0x375 JUMPI JUMPDEST POP PUSH1 0x20 SWAP3 PUSH1 0x1F DUP3 GT PUSH1 0x1 EQ PUSH2 0x314 JUMPI SWAP3 DUP2 SWAP3 SWAP4 PUSH0 SWAP3 PUSH2 0x309 JUMPI JUMPDEST POP POP DUP2 PUSH1 0x1 SHL SWAP2 PUSH0 NOT SWAP1 PUSH1 0x3 SHL SHR NOT AND OR PUSH1 0x1 SSTORE JUMPDEST PUSH1 0x80 MSTORE CHAINID PUSH1 0xA0 MSTORE PUSH1 0x40 MLOAD PUSH0 SWAP1 PUSH0 SLOAD SWAP2 DUP2 PUSH2 0x134 DUP5 PUSH2 0x523 JUMP JUMPDEST SWAP2 DUP3 DUP3 MSTORE PUSH1 0x20 DUP3 ADD SWAP5 PUSH1 0x1 DUP2 AND SWAP1 DUP2 PUSH0 EQ PUSH2 0x2ED JUMPI POP PUSH1 0x1 EQ PUSH2 0x2A3 JUMPI JUMPDEST PUSH2 0x15E SWAP3 POP SUB DUP3 PUSH2 0x4AB JUMP JUMPDEST MLOAD SWAP1 KECCAK256 PUSH1 0x40 MLOAD PUSH1 0x20 DUP2 ADD SWAP2 PUSH32 0x8B73C3C69BB8FE3D512ECC4CF759CC79239F7B179B0FFACAA9A75D522B39400F DUP4 MSTORE PUSH1 0x40 DUP3 ADD MSTORE PUSH32 0xC89EFDAA54C0F20C7ADF612882DF0950F5A951637E0307CDCB4C672F298B8BC6 PUSH1 0x60 DUP3 ADD MSTORE CHAINID PUSH1 0x80 DUP3 ADD MSTORE ADDRESS PUSH1 0xA0 DUP3 ADD MSTORE PUSH1 0xA0 DUP2 MSTORE PUSH2 0x1D2 PUSH1 0xC0 DUP3 PUSH2 0x4AB JUMP JUMPDEST MLOAD SWAP1 KECCAK256 PUSH1 0xC0 MSTORE PUSH1 0x6 DUP1 SLOAD PUSH1 0x1 PUSH1 0x1 PUSH1 0xA0 SHL SUB NOT AND CALLER OR SWAP1 SSTORE PUSH1 0x80 MLOAD PUSH1 0xFF AND PUSH1 0x4D DUP2 GT PUSH2 0x28F JUMPI PUSH1 0xA EXP DUP1 PUSH4 0x5F5E100 MUL SWAP1 PUSH4 0x5F5E100 DUP3 DIV SUB PUSH2 0x28F JUMPI PUSH1 0x2 SLOAD DUP2 DUP2 ADD DUP1 SWAP2 GT PUSH2 0x28F JUMPI PUSH1 0x2 SSTORE CALLER PUSH0 MSTORE PUSH1 0x3 PUSH1 0x20 MSTORE PUSH1 0x40 PUSH0 KECCAK256 DUP2 DUP2 SLOAD ADD SWAP1 SSTORE PUSH1 0x40 MLOAD SWAP1 DUP2 MSTORE PUSH0 PUSH32 0xDDF252AD1BE2C89B69C2B068FC378DAA952BA7F163C4A11628F55A4DF523B3EF PUSH1 0x20 CALLER SWAP4 LOG3 PUSH1 0x40 MLOAD PUSH2 0xBCD SWAP1 DUP2 PUSH2 0x55C DUP3 CODECOPY PUSH1 0x80 MLOAD DUP2 DUP2 DUP2 PUSH2 0x553 ADD MSTORE PUSH2 0x5E7 ADD MSTORE PUSH1 0xA0 MLOAD DUP2 PUSH2 0x981 ADD MSTORE PUSH1 0xC0 MLOAD DUP2 PUSH2 0x9A7 ADD MSTORE RETURN JUMPDEST PUSH4 0x4E487B71 PUSH1 0xE0 SHL PUSH0 MSTORE PUSH1 0x11 PUSH1 0x4 MSTORE PUSH1 0x24 PUSH0 REVERT JUMPDEST POP PUSH0 DUP1 DUP1 MSTORE SWAP1 SWAP2 PUSH0 MLOAD PUSH1 0x20 PUSH2 0x1129 PUSH0 CODECOPY PUSH0 MLOAD SWAP1 PUSH0 MSTORE JUMPDEST DUP2 DUP4 LT PUSH2 0x2D1 JUMPI POP POP SWAP1 PUSH1 0x20 PUSH2 0x15E SWAP3 DUP3 ADD ADD PUSH2 0x152 JUMP JUMPDEST PUSH1 0x20 SWAP2 SWAP4 POP DUP1 PUSH1 0x1 SWAP2 SLOAD DUP4 DUP6 DUP9 ADD ADD MSTORE ADD SWAP2 ADD SWAP1 SWAP2 DUP4 SWAP3 PUSH2 0x2B9 JUMP JUMPDEST PUSH1 0xFF NOT AND DUP7 MSTORE POP PUSH2 0x15E SWAP3 ISZERO ISZERO PUSH1 0x5 SHL DUP3 ADD PUSH1 0x20 ADD SWAP1 POP PUSH2 0x152 JUMP JUMPDEST ADD MLOAD SWAP1 POP PUSH0 DUP1 PUSH2 0x106 JUMP JUMPDEST PUSH1 0x1F NOT DUP3 AND SWAP4 PUSH1 0x1 PUSH0 MSTORE DUP1 PUSH0 KECCAK256 SWAP2 PUSH0 JUMPDEST DUP7 DUP2 LT PUSH2 0x35D JUMPI POP DUP4 PUSH1 0x1 SWAP6 SWAP7 LT PUSH2 0x345 JUMPI JUMPDEST POP POP POP DUP2 SHL ADD PUSH1 0x1 SSTORE PUSH2 0x11B JUMP JUMPDEST ADD MLOAD PUSH0 NOT PUSH1 0xF8 DUP5 PUSH1 0x3 SHL AND SHR NOT AND SWAP1 SSTORE PUSH0 DUP1 DUP1 PUSH2 0x337 JUMP JUMPDEST SWAP2 SWAP3 PUSH1 0x20 PUSH1 0x1 DUP2 SWAP3 DUP7 DUP6 ADD MLOAD DUP2 SSTORE ADD SWAP5 ADD SWAP3 ADD PUSH2 0x324 JUMP JUMPDEST PUSH1 0x1 PUSH0 MSTORE PUSH32 0xB10E2D527612073B26EECDFD717E6A320CF44B4AFAC2B0732D9FCBE2B7FA0CF6 PUSH1 0x1F DUP4 ADD PUSH1 0x5 SHR DUP2 ADD SWAP2 PUSH1 0x20 DUP5 LT PUSH2 0x3CE JUMPI JUMPDEST PUSH1 0x1F ADD PUSH1 0x5 SHR ADD SWAP1 JUMPDEST DUP2 DUP2 LT PUSH2 0x3C3 JUMPI POP PUSH2 0xEC JUMP JUMPDEST PUSH0 DUP2 SSTORE PUSH1 0x1 ADD PUSH2 0x3B6 JUMP JUMPDEST SWAP1 SWAP2 POP DUP2 SWAP1 PUSH2 0x3AD JUMP JUMPDEST PUSH4 0x4E487B71 PUSH1 0xE0 SHL PUSH0 MSTORE PUSH1 0x41 PUSH1 0x4 MSTORE PUSH1 0x24 PUSH0 REVERT JUMPDEST ADD MLOAD SWAP1 POP PUSH0 DUP1 PUSH2 0xB4 JUMP JUMPDEST PUSH1 0x1F NOT DUP3 AND SWAP1 PUSH0 DUP1 MSTORE DUP1 PUSH0 KECCAK256 SWAP2 PUSH0 JUMPDEST DUP2 DUP2 LT PUSH2 0x440 JUMPI POP SWAP6 DUP4 PUSH1 0x1 SWAP6 SWAP7 SWAP8 LT PUSH2 0x428 JUMPI JUMPDEST POP POP POP DUP2 SHL ADD PUSH0 SSTORE PUSH2 0xC8 JUMP JUMPDEST ADD MLOAD PUSH0 NOT PUSH1 0xF8 DUP5 PUSH1 0x3 SHL AND SHR NOT AND SWAP1 SSTORE PUSH0 DUP1 DUP1 PUSH2 0x41B JUMP JUMPDEST SWAP2 SWAP3 PUSH1 0x20 PUSH1 0x1 DUP2 SWAP3 DUP7 DUP12 ADD MLOAD DUP2 SSTORE ADD SWAP5 ADD SWAP3 ADD PUSH2 0x406 JUMP JUMPDEST PUSH0 DUP1 MSTORE PUSH0 MLOAD PUSH1 0x20 PUSH2 0x1129 PUSH0 CODECOPY PUSH0 MLOAD SWAP1 PUSH0 MSTORE PUSH1 0x1F DUP4 ADD PUSH1 0x5 SHR DUP2 ADD SWAP2 PUSH1 0x20 DUP5 LT PUSH2 0x49D JUMPI JUMPDEST PUSH1 0x1F ADD PUSH1 0x5 SHR ADD SWAP1 JUMPDEST DUP2 DUP2 LT PUSH2 0x492 JUMPI POP PUSH2 0x9B JUMP JUMPDEST PUSH0 DUP2 SSTORE PUSH1 0x1 ADD PUSH2 0x485 JUMP JUMPDEST SWAP1 SWAP2 POP DUP2 SWAP1 PUSH2 0x47C JUMP JUMPDEST PUSH0 DUP1 REVERT JUMPDEST PUSH1 0x1F SWAP1 SWAP2 ADD PUSH1 0x1F NOT AND DUP2 ADD SWAP1 PUSH1 0x1 PUSH1 0x1 PUSH1 0x40 SHL SUB DUP3 GT SWAP1 DUP3 LT OR PUSH2 0x3D8 JUMPI PUSH1 0x40 MSTORE JUMP JUMPDEST DUP2 PUSH1 0x1F DUP3 ADD SLT ISZERO PUSH2 0x4A7 JUMPI DUP1 MLOAD SWAP1 PUSH1 0x1 PUSH1 0x1 PUSH1 0x40 SHL SUB DUP3 GT PUSH2 0x3D8 JUMPI PUSH1 0x40 MLOAD SWAP3 PUSH2 0x502 PUSH1 0x1F DUP5 ADD PUSH1 0x1F NOT AND PUSH1 0x20 ADD DUP6 PUSH2 0x4AB JUMP JUMPDEST DUP3 DUP5 MSTORE PUSH1 0x20 DUP4 DUP4 ADD ADD GT PUSH2 0x4A7 JUMPI DUP2 PUSH0 SWAP3 PUSH1 0x20 DUP1 SWAP4 ADD DUP4 DUP7 ADD MCOPY DUP4 ADD ADD MSTORE SWAP1 JUMP JUMPDEST SWAP1 PUSH1 0x1 DUP3 DUP2 SHR SWAP3 AND DUP1 ISZERO PUSH2 0x551 JUMPI JUMPDEST PUSH1 0x20 DUP4 LT EQ PUSH2 0x53D JUMPI JUMP JUMPDEST PUSH4 0x4E487B71 PUSH1 0xE0 SHL PUSH0 MSTORE PUSH1 0x22 PUSH1 0x4 MSTORE PUSH1 0x24 PUSH0 REVERT JUMPDEST SWAP2 PUSH1 0x7F AND SWAP2 PUSH2 0x532 JUMP INVALID PUSH1 0x80 PUSH1 0x40 MSTORE PUSH1 0x4 CALLDATASIZE LT ISZERO PUSH2 0x22 JUMPI JUMPDEST CALLDATASIZE ISZERO PUSH2 0x18 JUMPI PUSH0 DUP1 REVERT JUMPDEST PUSH2 0x20 PUSH2 0xAF8 JUMP JUMPDEST STOP JUMPDEST PUSH0 CALLDATALOAD PUSH1 0xE0 SHR DUP1 PUSH4 0x6FDDE03 EQ PUSH2 0x80B JUMPI DUP1 PUSH4 0x95EA7B3 EQ PUSH2 0x792 JUMPI DUP1 PUSH4 0x18160DDD EQ PUSH2 0x775 JUMPI DUP1 PUSH4 0x23B872DD EQ PUSH2 0x6A5 JUMPI DUP1 PUSH4 0x2E1A7D4D EQ PUSH2 0x60B JUMPI DUP1 PUSH4 0x313CE567 EQ PUSH2 0x5CE JUMPI DUP1 PUSH4 0x3644E515 EQ PUSH2 0x5AC JUMPI DUP1 PUSH4 0x40C10F19 EQ PUSH2 0x528 JUMPI DUP1 PUSH4 0x70A08231 EQ PUSH2 0x4F0 JUMPI DUP1 PUSH4 0x7ECEBE00 EQ PUSH2 0x4B8 JUMPI DUP1 PUSH4 0x8DA5CB5B EQ PUSH2 0x490 JUMPI DUP1 PUSH4 0x95D89B41 EQ PUSH2 0x3B6 JUMPI DUP1 PUSH4 0xA9059CBB EQ PUSH2 0x341 JUMPI DUP1 PUSH4 0xD0E30DB0 EQ PUSH2 0x32E JUMPI DUP1 PUSH4 0xD505ACCF EQ PUSH2 0x12A JUMPI PUSH4 0xDD62ED3E SUB PUSH2 0xE JUMPI CALLVALUE PUSH2 0x126 JUMPI PUSH1 0x40 CALLDATASIZE PUSH1 0x3 NOT ADD SLT PUSH2 0x126 JUMPI PUSH2 0xEF PUSH2 0x945 JUMP JUMPDEST PUSH2 0xF7 PUSH2 0x95B JUMP JUMPDEST PUSH1 0x1 PUSH1 0x1 PUSH1 0xA0 SHL SUB SWAP2 DUP3 AND PUSH0 SWAP1 DUP2 MSTORE PUSH1 0x4 PUSH1 0x20 SWAP1 DUP2 MSTORE PUSH1 0x40 DUP1 DUP4 KECCAK256 SWAP5 SWAP1 SWAP4 AND DUP3 MSTORE SWAP3 DUP4 MSTORE DUP2 SWAP1 KECCAK256 SLOAD SWAP1 MLOAD SWAP1 DUP2 MSTORE RETURN JUMPDEST PUSH0 DUP1 REVERT JUMPDEST CALLVALUE PUSH2 0x126 JUMPI PUSH1 0xE0 CALLDATASIZE PUSH1 0x3 NOT ADD SLT PUSH2 0x126 JUMPI PUSH2 0x143 PUSH2 0x945 JUMP JUMPDEST PUSH2 0x14B PUSH2 0x95B JUMP JUMPDEST PUSH1 0x44 CALLDATALOAD PUSH1 0x64 CALLDATALOAD SWAP3 PUSH1 0x84 CALLDATALOAD PUSH1 0xFF DUP2 AND DUP1 SWAP2 SUB PUSH2 0x126 JUMPI TIMESTAMP DUP6 LT PUSH2 0x2EF JUMPI PUSH1 0x80 PUSH0 SWAP2 PUSH1 0x20 SWAP4 PUSH2 0x176 PUSH2 0x97E JUMP JUMPDEST SWAP1 PUSH1 0x1 DUP1 PUSH1 0xA0 SHL SUB AND SWAP7 DUP8 DUP6 MSTORE PUSH1 0x5 DUP7 MSTORE PUSH1 0x40 DUP6 KECCAK256 SWAP9 DUP10 SLOAD SWAP10 PUSH1 0x1 DUP12 ADD SWAP1 SSTORE PUSH1 0x40 MLOAD SWAP1 DUP8 DUP3 ADD SWAP3 PUSH32 0x6E71EDAE12B1B97F4D1F60370FEF10105FA2FAAE0126114A169C64845D6126C9 DUP5 MSTORE DUP11 PUSH1 0x40 DUP5 ADD MSTORE PUSH1 0x1 DUP1 PUSH1 0xA0 SHL SUB AND SWAP11 DUP12 PUSH1 0x60 DUP5 ADD MSTORE DUP10 DUP8 DUP5 ADD MSTORE PUSH1 0xA0 DUP4 ADD MSTORE PUSH1 0xC0 DUP3 ADD MSTORE PUSH1 0xC0 DUP2 MSTORE PUSH2 0x1F3 PUSH1 0xE0 DUP3 PUSH2 0x8E5 JUMP JUMPDEST MLOAD SWAP1 KECCAK256 PUSH1 0x40 MLOAD SWAP1 DUP7 DUP3 ADD SWAP3 PUSH2 0x1901 PUSH1 0xF0 SHL DUP5 MSTORE PUSH1 0x22 DUP4 ADD MSTORE PUSH1 0x42 DUP3 ADD MSTORE PUSH1 0x42 DUP2 MSTORE PUSH2 0x21F PUSH1 0x62 DUP3 PUSH2 0x8E5 JUMP JUMPDEST MLOAD SWAP1 KECCAK256 SWAP1 PUSH1 0x40 MLOAD SWAP2 DUP3 MSTORE DUP5 DUP3 ADD MSTORE PUSH1 0xA4 CALLDATALOAD PUSH1 0x40 DUP3 ADD MSTORE PUSH1 0xC4 CALLDATALOAD PUSH1 0x60 DUP3 ADD MSTORE DUP3 DUP1 MSTORE PUSH1 0x1 GAS STATICCALL ISZERO PUSH2 0x2E4 JUMPI PUSH0 MLOAD PUSH1 0x1 PUSH1 0x1 PUSH1 0xA0 SHL SUB AND DUP1 ISZERO ISZERO DUP1 PUSH2 0x2DB JUMPI JUMPDEST ISZERO PUSH2 0x2A5 JUMPI PUSH32 0x8C5BE1E5EBEC7D5BD14F71427D1E84F3DD0314C0F7B2291E5B200AC8C7C3B925 SWAP2 PUSH1 0x20 SWAP2 PUSH0 MSTORE PUSH1 0x4 DUP3 MSTORE PUSH1 0x40 PUSH0 KECCAK256 DUP6 PUSH0 MSTORE DUP3 MSTORE DUP1 PUSH1 0x40 PUSH0 KECCAK256 SSTORE PUSH1 0x40 MLOAD SWAP1 DUP2 MSTORE LOG3 STOP JUMPDEST PUSH1 0x40 MLOAD PUSH3 0x461BCD PUSH1 0xE5 SHL DUP2 MSTORE PUSH1 0x20 PUSH1 0x4 DUP3 ADD MSTORE PUSH1 0xE PUSH1 0x24 DUP3 ADD MSTORE PUSH14 0x24A72B20A624A22FA9A4A3A722A9 PUSH1 0x91 SHL PUSH1 0x44 DUP3 ADD MSTORE PUSH1 0x64 SWAP1 REVERT JUMPDEST POP DUP3 DUP2 EQ PUSH2 0x25D JUMP JUMPDEST PUSH1 0x40 MLOAD RETURNDATASIZE PUSH0 DUP3 RETURNDATACOPY RETURNDATASIZE SWAP1 REVERT JUMPDEST PUSH1 0x40 MLOAD PUSH3 0x461BCD PUSH1 0xE5 SHL DUP2 MSTORE PUSH1 0x20 PUSH1 0x4 DUP3 ADD MSTORE PUSH1 0x17 PUSH1 0x24 DUP3 ADD MSTORE PUSH23 0x14115493525517D11150511312539157D1561412549151 PUSH1 0x4A SHL PUSH1 0x44 DUP3 ADD MSTORE PUSH1 0x64 SWAP1 REVERT JUMPDEST PUSH0 CALLDATASIZE PUSH1 0x3 NOT ADD SLT PUSH2 0x126 JUMPI PUSH2 0x20 PUSH2 0xAF8 JUMP JUMPDEST CALLVALUE PUSH2 0x126 JUMPI PUSH1 0x40 CALLDATASIZE PUSH1 0x3 NOT ADD SLT PUSH2 0x126 JUMPI PUSH2 0x35A PUSH2 0x945 JUMP JUMPDEST PUSH1 0x24 CALLDATALOAD SWAP1 CALLER PUSH0 MSTORE PUSH1 0x3 PUSH1 0x20 MSTORE PUSH1 0x40 PUSH0 KECCAK256 PUSH2 0x375 DUP4 DUP3 SLOAD PUSH2 0x971 JUMP JUMPDEST SWAP1 SSTORE PUSH1 0x1 DUP1 PUSH1 0xA0 SHL SUB AND SWAP1 DUP2 PUSH0 MSTORE PUSH1 0x3 PUSH1 0x20 MSTORE PUSH1 0x40 PUSH0 KECCAK256 DUP2 DUP2 SLOAD ADD SWAP1 SSTORE PUSH1 0x40 MLOAD SWAP1 DUP2 MSTORE PUSH0 MLOAD PUSH1 0x20 PUSH2 0xB78 PUSH0 CODECOPY PUSH0 MLOAD SWAP1 PUSH0 MSTORE PUSH1 0x20 CALLER SWAP3 LOG3 PUSH1 0x20 PUSH1 0x40 MLOAD PUSH1 0x1 DUP2 MSTORE RETURN JUMPDEST CALLVALUE PUSH2 0x126 JUMPI PUSH0 CALLDATASIZE PUSH1 0x3 NOT ADD SLT PUSH2 0x126 JUMPI PUSH1 0x40 MLOAD PUSH0 PUSH1 0x1 SLOAD PUSH2 0x3D6 DUP2 PUSH2 0x8AD JUMP JUMPDEST DUP1 DUP5 MSTORE SWAP1 PUSH1 0x1 DUP2 AND SWAP1 DUP2 ISZERO PUSH2 0x46C JUMPI POP PUSH1 0x1 EQ PUSH2 0x40E JUMPI JUMPDEST PUSH2 0x40A DUP4 PUSH2 0x3FE DUP2 DUP6 SUB DUP3 PUSH2 0x8E5 JUMP JUMPDEST PUSH1 0x40 MLOAD SWAP2 DUP3 SWAP2 DUP3 PUSH2 0x91B JUMP JUMPDEST SUB SWAP1 RETURN JUMPDEST PUSH1 0x1 PUSH0 SWAP1 DUP2 MSTORE PUSH32 0xB10E2D527612073B26EECDFD717E6A320CF44B4AFAC2B0732D9FCBE2B7FA0CF6 SWAP4 SWAP3 POP SWAP1 JUMPDEST DUP1 DUP3 LT PUSH2 0x452 JUMPI POP SWAP1 SWAP2 POP DUP2 ADD PUSH1 0x20 ADD PUSH2 0x3FE PUSH2 0x3EE JUMP JUMPDEST SWAP2 SWAP3 PUSH1 0x1 DUP2 PUSH1 0x20 SWAP3 SLOAD DUP4 DUP6 DUP9 ADD ADD MSTORE ADD SWAP2 ADD SWAP1 SWAP3 SWAP2 PUSH2 0x43A JUMP JUMPDEST PUSH1 0xFF NOT AND PUSH1 0x20 DUP1 DUP7 ADD SWAP2 SWAP1 SWAP2 MSTORE SWAP2 ISZERO ISZERO PUSH1 0x5 SHL DUP5 ADD SWAP1 SWAP2 ADD SWAP2 POP PUSH2 0x3FE SWAP1 POP PUSH2 0x3EE JUMP JUMPDEST CALLVALUE PUSH2 0x126 JUMPI PUSH0 CALLDATASIZE PUSH1 0x3 NOT ADD SLT PUSH2 0x126 JUMPI PUSH1 0x6 SLOAD PUSH1 0x40 MLOAD PUSH1 0x1 PUSH1 0x1 PUSH1 0xA0 SHL SUB SWAP1 SWAP2 AND DUP2 MSTORE PUSH1 0x20 SWAP1 RETURN JUMPDEST CALLVALUE PUSH2 0x126 JUMPI PUSH1 0x20 CALLDATASIZE PUSH1 0x3 NOT ADD SLT PUSH2 0x126 JUMPI PUSH1 0x1 PUSH1 0x1 PUSH1 0xA0 SHL SUB PUSH2 0x4D9 PUSH2 0x945 JUMP JUMPDEST AND PUSH0 MSTORE PUSH1 0x5 PUSH1 0x20 MSTORE PUSH1 0x20 PUSH1 0x40 PUSH0 KECCAK256 SLOAD PUSH1 0x40 MLOAD SWAP1 DUP2 MSTORE RETURN JUMPDEST CALLVALUE PUSH2 0x126 JUMPI PUSH1 0x20 CALLDATASIZE PUSH1 0x3 NOT ADD SLT PUSH2 0x126 JUMPI PUSH1 0x1 PUSH1 0x1 PUSH1 0xA0 SHL SUB PUSH2 0x511 PUSH2 0x945 JUMP JUMPDEST AND PUSH0 MSTORE PUSH1 0x3 PUSH1 0x20 MSTORE PUSH1 0x20 PUSH1 0x40 PUSH0 KECCAK256 SLOAD PUSH1 0x40 MLOAD SWAP1 DUP2 MSTORE RETURN JUMPDEST CALLVALUE PUSH2 0x126 JUMPI PUSH1 0x40 CALLDATASIZE PUSH1 0x3 NOT ADD SLT PUSH2 0x126 JUMPI PUSH2 0x541 PUSH2 0x945 JUMP JUMPDEST PUSH1 0x24 CALLDATALOAD PUSH4 0x5F5E100 DUP2 GT PUSH2 0x126 JUMPI PUSH1 0xFF PUSH32 0x0 AND PUSH1 0x4D DUP2 GT PUSH2 0x598 JUMPI PUSH1 0xA EXP SWAP1 DUP2 DUP2 MUL SWAP2 DUP2 DUP4 DIV EQ SWAP1 ISZERO OR ISZERO PUSH2 0x598 JUMPI PUSH2 0x20 SWAP2 PUSH2 0xB30 JUMP JUMPDEST PUSH4 0x4E487B71 PUSH1 0xE0 SHL PUSH0 MSTORE PUSH1 0x11 PUSH1 0x4 MSTORE PUSH1 0x24 PUSH0 REVERT JUMPDEST CALLVALUE PUSH2 0x126 JUMPI PUSH0 CALLDATASIZE PUSH1 0x3 NOT ADD SLT PUSH2 0x126 JUMPI PUSH1 0x20 PUSH2 0x5C6 PUSH2 0x97E JUMP JUMPDEST PUSH1 0x40 MLOAD SWAP1 DUP2 MSTORE RETURN JUMPDEST CALLVALUE PUSH2 0x126 JUMPI PUSH0 CALLDATASIZE PUSH1 0x3 NOT ADD SLT PUSH2 0x126 JUMPI PUSH1 0x20 PUSH1 0x40 MLOAD PUSH1 0xFF PUSH32 0x0 AND DUP2 MSTORE RETURN JUMPDEST CALLVALUE PUSH2 0x126 JUMPI PUSH1 0x20 CALLDATASIZE PUSH1 0x3 NOT ADD SLT PUSH2 0x126 JUMPI PUSH0 DUP1 DUP1 DUP1 PUSH1 0x4 CALLDATALOAD CALLER DUP3 MSTORE PUSH1 0x3 PUSH1 0x20 MSTORE PUSH1 0x40 DUP3 KECCAK256 PUSH2 0x63A DUP3 DUP3 SLOAD PUSH2 0x971 JUMP JUMPDEST SWAP1 SSTORE DUP1 PUSH1 0x2 SLOAD SUB PUSH1 0x2 SSTORE DUP2 PUSH1 0x40 MLOAD DUP3 DUP2 MSTORE PUSH0 MLOAD PUSH1 0x20 PUSH2 0xB78 PUSH0 CODECOPY PUSH0 MLOAD SWAP1 PUSH0 MSTORE PUSH1 0x20 CALLER SWAP3 LOG3 PUSH1 0x40 MLOAD DUP2 DUP2 MSTORE PUSH32 0x7FCF532C15F0A6DB0BD6D0E038BEA71D30D808C7D98CB3BF7268A95BF5081B65 PUSH1 0x20 CALLER SWAP3 LOG2 DUP2 DUP2 ISZERO PUSH2 0x69C JUMPI JUMPDEST CALLER SWAP1 CALL ISZERO PUSH2 0x2E4 JUMPI STOP JUMPDEST POP PUSH2 0x8FC PUSH2 0x692 JUMP JUMPDEST CALLVALUE PUSH2 0x126 JUMPI PUSH1 0x60 CALLDATASIZE PUSH1 0x3 NOT ADD SLT PUSH2 0x126 JUMPI PUSH2 0x6BE PUSH2 0x945 JUMP JUMPDEST PUSH2 0x6C6 PUSH2 0x95B JUMP JUMPDEST PUSH1 0x1 PUSH1 0x1 PUSH1 0xA0 SHL SUB SWAP1 SWAP2 AND PUSH0 DUP2 DUP2 MSTORE PUSH1 0x4 PUSH1 0x20 SWAP1 DUP2 MSTORE PUSH1 0x40 DUP1 DUP4 KECCAK256 CALLER DUP5 MSTORE DUP3 MSTORE SWAP1 SWAP2 KECCAK256 SLOAD PUSH1 0x44 CALLDATALOAD SWAP4 PUSH0 MLOAD PUSH1 0x20 PUSH2 0xB78 PUSH0 CODECOPY PUSH0 MLOAD SWAP1 PUSH0 MSTORE SWAP3 SWAP2 DUP6 PUSH1 0x1 DUP3 ADD PUSH2 0x750 JUMPI JUMPDEST POP POP DUP4 PUSH0 MSTORE PUSH1 0x3 DUP3 MSTORE PUSH1 0x40 PUSH0 KECCAK256 PUSH2 0x720 DUP7 DUP3 SLOAD PUSH2 0x971 JUMP JUMPDEST SWAP1 SSTORE PUSH1 0x1 PUSH1 0x1 PUSH1 0xA0 SHL SUB AND PUSH0 DUP2 DUP2 MSTORE PUSH1 0x3 DUP4 MSTORE PUSH1 0x40 SWAP1 DUP2 SWAP1 KECCAK256 DUP1 SLOAD DUP8 ADD SWAP1 SSTORE MLOAD SWAP5 DUP6 MSTORE SWAP4 LOG3 PUSH1 0x20 PUSH1 0x40 MLOAD PUSH1 0x1 DUP2 MSTORE RETURN JUMPDEST PUSH2 0x759 SWAP2 PUSH2 0x971 JUMP JUMPDEST PUSH0 DUP6 DUP2 MSTORE PUSH1 0x4 DUP5 MSTORE PUSH1 0x40 DUP1 DUP3 KECCAK256 CALLER DUP4 MSTORE DUP6 MSTORE SWAP1 KECCAK256 SSTORE DUP6 DUP6 PUSH2 0x708 JUMP JUMPDEST CALLVALUE PUSH2 0x126 JUMPI PUSH0 CALLDATASIZE PUSH1 0x3 NOT ADD SLT PUSH2 0x126 JUMPI PUSH1 0x20 PUSH1 0x2 SLOAD PUSH1 0x40 MLOAD SWAP1 DUP2 MSTORE RETURN JUMPDEST CALLVALUE PUSH2 0x126 JUMPI PUSH1 0x40 CALLDATASIZE PUSH1 0x3 NOT ADD SLT PUSH2 0x126 JUMPI PUSH2 0x7AB PUSH2 0x945 JUMP JUMPDEST CALLER PUSH0 DUP2 DUP2 MSTORE PUSH1 0x4 PUSH1 0x20 SWAP1 DUP2 MSTORE PUSH1 0x40 DUP1 DUP4 KECCAK256 PUSH1 0x1 PUSH1 0x1 PUSH1 0xA0 SHL SUB SWAP1 SWAP6 AND DUP1 DUP5 MSTORE SWAP5 DUP3 MSTORE SWAP2 DUP3 SWAP1 KECCAK256 PUSH1 0x24 CALLDATALOAD SWAP1 DUP2 SWAP1 SSTORE SWAP2 MLOAD SWAP2 DUP3 MSTORE PUSH32 0x8C5BE1E5EBEC7D5BD14F71427D1E84F3DD0314C0F7B2291E5B200AC8C7C3B925 SWAP2 LOG3 PUSH1 0x20 PUSH1 0x40 MLOAD PUSH1 0x1 DUP2 MSTORE RETURN JUMPDEST CALLVALUE PUSH2 0x126 JUMPI PUSH0 CALLDATASIZE PUSH1 0x3 NOT ADD SLT PUSH2 0x126 JUMPI PUSH1 0x40 MLOAD PUSH0 PUSH0 SLOAD PUSH2 0x82A DUP2 PUSH2 0x8AD JUMP JUMPDEST DUP1 DUP5 MSTORE SWAP1 PUSH1 0x1 DUP2 AND SWAP1 DUP2 ISZERO PUSH2 0x46C JUMPI POP PUSH1 0x1 EQ PUSH2 0x851 JUMPI PUSH2 0x40A DUP4 PUSH2 0x3FE DUP2 DUP6 SUB DUP3 PUSH2 0x8E5 JUMP JUMPDEST PUSH0 DUP1 DUP1 MSTORE PUSH32 0x290DECD9548B62A8D60345A988386FC84BA6BC95484008F6362F93160EF3E563 SWAP4 SWAP3 POP SWAP1 JUMPDEST DUP1 DUP3 LT PUSH2 0x893 JUMPI POP SWAP1 SWAP2 POP DUP2 ADD PUSH1 0x20 ADD PUSH2 0x3FE PUSH2 0x3EE JUMP JUMPDEST SWAP2 SWAP3 PUSH1 0x1 DUP2 PUSH1 0x20 SWAP3 SLOAD DUP4 DUP6 DUP9 ADD ADD MSTORE ADD SWAP2 ADD SWAP1 SWAP3 SWAP2 PUSH2 0x87B JUMP JUMPDEST SWAP1 PUSH1 0x1 DUP3 DUP2 SHR SWAP3 AND DUP1 ISZERO PUSH2 0x8DB JUMPI JUMPDEST PUSH1 0x20 DUP4 LT EQ PUSH2 0x8C7 JUMPI JUMP JUMPDEST PUSH4 0x4E487B71 PUSH1 0xE0 SHL PUSH0 MSTORE PUSH1 0x22 PUSH1 0x4 MSTORE PUSH1 0x24 PUSH0 REVERT JUMPDEST SWAP2 PUSH1 0x7F AND SWAP2 PUSH2 0x8BC JUMP JUMPDEST SWAP1 PUSH1 0x1F DUP1 NOT SWAP2 ADD AND DUP2 ADD SWAP1 DUP2 LT PUSH8 0xFFFFFFFFFFFFFFFF DUP3 GT OR PUSH2 0x907 JUMPI PUSH1 0x40 MSTORE JUMP JUMPDEST PUSH4 0x4E487B71 PUSH1 0xE0 SHL PUSH0 MSTORE PUSH1 0x41 PUSH1 0x4 MSTORE PUSH1 0x24 PUSH0 REVERT JUMPDEST PUSH1 0x20 PUSH1 0x40 SWAP3 DUP2 DUP4 MSTORE DUP1 MLOAD SWAP2 DUP3 SWAP2 DUP3 DUP3 DUP7 ADD MSTORE ADD DUP5 DUP5 ADD MCOPY PUSH0 DUP3 DUP3 ADD DUP5 ADD MSTORE PUSH1 0x1F ADD PUSH1 0x1F NOT AND ADD ADD SWAP1 JUMP JUMPDEST PUSH1 0x4 CALLDATALOAD SWAP1 PUSH1 0x1 PUSH1 0x1 PUSH1 0xA0 SHL SUB DUP3 AND DUP3 SUB PUSH2 0x126 JUMPI JUMP JUMPDEST PUSH1 0x24 CALLDATALOAD SWAP1 PUSH1 0x1 PUSH1 0x1 PUSH1 0xA0 SHL SUB DUP3 AND DUP3 SUB PUSH2 0x126 JUMPI JUMP JUMPDEST SWAP2 SWAP1 DUP3 SUB SWAP2 DUP3 GT PUSH2 0x598 JUMPI JUMP JUMPDEST CHAINID PUSH32 0x0 SUB PUSH2 0x9C9 JUMPI PUSH32 0x0 SWAP1 JUMP JUMPDEST PUSH1 0x40 MLOAD PUSH0 SWAP1 PUSH0 SLOAD SWAP2 DUP2 PUSH2 0x9DB DUP5 PUSH2 0x8AD JUMP JUMPDEST SWAP2 DUP3 DUP3 MSTORE PUSH1 0x20 DUP3 ADD SWAP5 PUSH1 0x1 DUP2 AND SWAP1 DUP2 PUSH0 EQ PUSH2 0xADC JUMPI POP PUSH1 0x1 EQ PUSH2 0xA7F JUMPI JUMPDEST PUSH2 0xA05 SWAP3 POP SUB DUP3 PUSH2 0x8E5 JUMP JUMPDEST MLOAD SWAP1 KECCAK256 PUSH1 0x40 MLOAD PUSH1 0x20 DUP2 ADD SWAP2 PUSH32 0x8B73C3C69BB8FE3D512ECC4CF759CC79239F7B179B0FFACAA9A75D522B39400F DUP4 MSTORE PUSH1 0x40 DUP3 ADD MSTORE PUSH32 0xC89EFDAA54C0F20C7ADF612882DF0950F5A951637E0307CDCB4C672F298B8BC6 PUSH1 0x60 DUP3 ADD MSTORE CHAINID PUSH1 0x80 DUP3 ADD MSTORE ADDRESS PUSH1 0xA0 DUP3 ADD MSTORE PUSH1 0xA0 DUP2 MSTORE PUSH2 0xA79 PUSH1 0xC0 DUP3 PUSH2 0x8E5 JUMP JUMPDEST MLOAD SWAP1 KECCAK256 SWAP1 JUMP JUMPDEST POP PUSH0 DUP1 DUP1 MSTORE SWAP1 SWAP2 PUSH32 0x290DECD9548B62A8D60345A988386FC84BA6BC95484008F6362F93160EF3E563 JUMPDEST DUP2 DUP4 LT PUSH2 0xAC0 JUMPI POP POP SWAP1 PUSH1 0x20 PUSH2 0xA05 SWAP3 DUP3 ADD ADD PUSH2 0x9F9 JUMP JUMPDEST PUSH1 0x20 SWAP2 SWAP4 POP DUP1 PUSH1 0x1 SWAP2 SLOAD DUP4 DUP6 DUP9 ADD ADD MSTORE ADD SWAP2 ADD SWAP1 SWAP2 DUP4 SWAP3 PUSH2 0xAA8 JUMP JUMPDEST PUSH1 0xFF NOT AND DUP7 MSTORE POP PUSH2 0xA05 SWAP3 ISZERO ISZERO PUSH1 0x5 SHL DUP3 ADD PUSH1 0x20 ADD SWAP1 POP PUSH2 0x9F9 JUMP JUMPDEST PUSH1 0x40 MLOAD CALLVALUE DUP2 MSTORE PUSH32 0xE1FFFCC4923D04B559F4D29A8BFC6CDA04EB5B0D3C460751C2402C5C5CC9109C PUSH1 0x20 CALLER SWAP3 LOG2 PUSH2 0xB2E CALLVALUE CALLER PUSH2 0xB30 JUMP JUMPDEST JUMP JUMPDEST PUSH1 0x2 SLOAD SWAP1 DUP3 DUP3 ADD DUP1 SWAP3 GT PUSH2 0x598 JUMPI PUSH1 0x20 PUSH0 MLOAD PUSH1 0x20 PUSH2 0xB78 PUSH0 CODECOPY PUSH0 MLOAD SWAP1 PUSH0 MSTORE SWAP2 PUSH0 SWAP4 PUSH1 0x2 SSTORE PUSH1 0x1 DUP1 PUSH1 0xA0 SHL SUB AND SWAP4 DUP5 DUP5 MSTORE PUSH1 0x3 DUP3 MSTORE PUSH1 0x40 DUP5 KECCAK256 DUP2 DUP2 SLOAD ADD SWAP1 SSTORE PUSH1 0x40 MLOAD SWAP1 DUP2 MSTORE LOG3 JUMP INVALID 0xDD CALLCODE MSTORE 0xAD SHL 0xE2 0xC8 SWAP12 PUSH10 0xC2B068FC378DAA952BA7 CALL PUSH4 0xC4A11628 CREATE2 GAS 0x4D CREATE2 0x23 0xB3 0xEF LOG2 PUSH5 0x6970667358 0x22 SLT KECCAK256 0x2B ISZERO TIMESTAMP PUSH13 0xD270C4B1FFBD1B668E47CB9703 0xE2 0xE9 SWAP4 BASEFEE 0xAB 0x29 EXTCODESIZE ADDMOD 0xC5 0x2B 0xE2 GAS DUP16 SMOD PUSH13 0x64736F6C634300081D0033290D EOFCREATE 0xD9 SLOAD DUP12 PUSH3 0xA8D603 GASLIMIT 0xA9 DUP9 CODESIZE PUSH16 0xC84BA6BC95484008F6362F93160EF3E5 PUSH4 0x0 "
				},
				"gasEstimates": {
					"creation": {
						"codeDepositCost": "604200",
						"executionCost": "infinite",
						"totalCost": "infinite"
					},
					"external": {
						"DOMAIN_SEPARATOR()": "infinite",
						"allowance(address,address)": "2891",
						"approve(address,uint256)": "24305",
						"balanceOf(address)": "2574",
						"decimals()": "infinite",
						"deposit()": "infinite",
						"mint(address,uint256)": "infinite",
						"name()": "infinite",
						"nonces(address)": "2596",
						"owner()": "2492",
						"permit(address,address,uint256,uint256,uint8,bytes32,bytes32)": "infinite",
						"symbol()": "infinite",
						"totalSupply()": "2292",
						"transfer(address,uint256)": "infinite",
						"transferFrom(address,address,uint256)": "infinite",
						"withdraw(uint256)": "infinite"
					}
				},
				"methodIdentifiers": {
					"DOMAIN_SEPARATOR()": "3644e515",
					"allowance(address,address)": "dd62ed3e",
					"approve(address,uint256)": "095ea7b3",
					"balanceOf(address)": "70a08231",
					"decimals()": "313ce567",
					"deposit()": "d0e30db0",
					"mint(address,uint256)": "40c10f19",
					"name()": "06fdde03",
					"nonces(address)": "7ecebe00",
					"owner()": "8da5cb5b",
					"permit(address,address,uint256,uint256,uint8,bytes32,bytes32)": "d505accf",
					"symbol()": "95d89b41",
					"totalSupply()": "18160ddd",
					"transfer(address,uint256)": "a9059cbb",
					"transferFrom(address,address,uint256)": "23b872dd",
					"withdraw(uint256)": "2e1a7d4d"
				}
			},
			"storageLayout": {
				"storage": [
					{
						"astId": 20,
						"contract": "test/MyToken.sol:MyToken",
						"label": "name",
						"offset": 0,
						"slot": "0",
						"type": "t_string_storage"
					},
					{
						"astId": 22,
						"contract": "test/MyToken.sol:MyToken",
						"label": "symbol",
						"offset": 0,
						"slot": "1",
						"type": "t_string_storage"
					},
					{
						"astId": 26,
						"contract": "test/MyToken.sol:MyToken",
						"label": "totalSupply",
						"offset": 0,
						"slot": "2",
						"type": "t_uint256"
					},
					{
						"astId": 30,
						"contract": "test/MyToken.sol:MyToken",
						"label": "balanceOf",
						"offset": 0,
						"slot": "3",
						"type": "t_mapping(t_address,t_uint256)"
					},
					{
						"astId": 36,
						"contract": "test/MyToken.sol:MyToken",
						"label": "allowance",
						"offset": 0,
						"slot": "4",
						"type": "t_mapping(t_address,t_mapping(t_address,t_uint256))"
					},
					{
						"astId": 44,
						"contract": "test/MyToken.sol:MyToken",
						"label": "nonces",
						"offset": 0,
						"slot": "5",
						"type": "t_mapping(t_address,t_uint256)"
					},
					{
						"astId": 395,
						"contract": "test/MyToken.sol:MyToken",
						"label": "owner",
						"offset": 0,
						"slot": "6",
						"type": "t_address"
					}
				],
				"types": {
					"t_address": {
						"encoding": "inplace",
						"label": "address",
						"numberOfBytes": "20"
					},
					"t_mapping(t_address,t_mapping(t_address,t_uint256))": {
						"encoding": "mapping",
						"key": "t_address",
						"label": "mapping(address => mapping(address => uint256))",
						"numberOfBytes": "32",
						"value": "t_mapping(t_address,t_uint256)"
					},
					"t_mapping(t_address,t_uint256)": {
						"encoding": "mapping",
						"key": "t_address",
						"label": "mapping(address => uint256)",
						"numberOfBytes": "32",
						"value": "t_uint256"
					},
					"t_string_storage": {
						"encoding": "bytes",
						"label": "string",
						"numberOfBytes": "32"
					},
					"t_uint256": {
						"encoding": "inplace",
						"label": "uint256",
						"numberOfBytes": "32"
					}
				}
			},
			"userdoc": {
				"kind": "user",
				"methods": {},
				"version": 1
			}
		}
	}
}